:10000000008000203907000061070000E5050000BE
:10001000E9050000ED050000F1050000000000000A
:100020000000000000000000000000006B0700005E
:100030006D070000000000006F070000710700005E
:1000400073070000730700007307000073070000C8
:1000500073070000730700007307000073070000B8
:1000600073070000D9030000730700007307000046
:100070007307000073070000730700007307000098
:100080007307000073070000730700007307000088
:100090007307000073070000730700007307000078
:1000A0007307000073070000730700007307000068
:1000B000730700007307000000000000000000004C
:1000C0007307000073070000730700007307000048
:1000D0007307000073070000730700007307000038
:1000E00073070000730700007307000000000000A2
:1000F000000000007307000000000000730700000C
:1001000000000000000000000000000000000000EF
:1001100000000000000000000000000000000000DF
:1001200000000000000000000000000000000000CF
:1001300000000000000000000000000000000000BF
:1001400000000000000000000000000000000000AF
:10015000000000000000000000000000000000009F
:10016000000000000000000000000000000000008F
:10017000000000000000000000000000000000007F
:10018000000000000000000000000000000000006F
:10019000000000000000000000000000000000005F
:1001A000000000000000000000000000000000004F
:1001B000000000000000000000000000000000003F
:1001C000000000000000000000000000000000002F
:1001D000000000000000000000000000000000001F
:1001E000000000000000000000000000000000000F
:1001F00000000000000000000000000000000000FF
:1002000010B5054C237833B9044B13B10448AFF350
:1002100000800123237010BD6C010020000000004D
:100220009C07000008B5034B1BB103490348AFF31B
:10023000008008BD00000000700100209C07000045
:10024000A3F5803A704700BF174B002B08BF134B34
:100250009D46FFF7F5FF00218B460F461348144AD1
:10026000121A00F063F80E4B002B00D098470D4B8C
:10027000002B00D098470020002104000D000D48FD
:10028000002802D00C48AFF3008000F02BF82000CB
:10029000290000F0B5F800F011F800BF00000800D8
:1002A0000000000000000000008000206C01002021
:1002B000A0020020000000000000000008B5074B6D
:1002C000044613B10021AFF30080054B1868836A20
:1002D00003B19847204600F031F800BF000000004D
:1002E0008C07000070B50D4D0D4C641BA41000264A
:1002F000A64209D10B4D0C4C00F03CFA641BA41033
:100300000026A64205D170BD55F8043B984701363A
:10031000EEE755F8043B98470136F2E76401002008
:1003200064010020640100206801002002440346AB
:10033000934200D1704703F8011BF9E7FEE700BFC5
:100340001F4B204A2048214970B40426C3F8106589
:100350000726C3F80062C3F8142540F25B62C3F8B5
:100360001805C3F8382540F203101A22C3F83C15CB
:10037000174DC3F834050021C3F80825154CC3F800
:1003800004556FF08E000122C3F80011C3F80C1160
:10039000C3F81C45C3F82405C3F82C15C3F8302551
:1003A000D3F8502642F0F85242F4F812C020C3F8B5
:1003B0005026C3F84405C3F80C1570BC704700BF45
:1003C0000010004008010001FF00030055555500D2
:1003D0009C01002000294176074BD3F840214AB107
:1003E000D3F80423D20305D5044A00200121C3F821
:1003F00040011170704700BF009000409001002044
:100400002DE980484FF0804300210122C3F80011FC
:1004100083B019461A60D1F80031002BFBD0644B31
:10042000644ADFF8B491DFF8B481012700264FF465
:1004300080304FF40071082542F21074C3F804654F
:10044000DF60C3F81055C3F80865C3F84045C3F82A
:10045000040311601F60FFF773FF57485749584C5A
:10046000584DDFF87CE14FF0A0434FF4804CC3F8C7
:1004700034773246C3F8387747600346C0F81061D6
:100480002878D0B150482F7806685048013680FB54
:1004900006A0A0EBE67000EB4000301A4C4E56F878
:1004A00020A0494E87F00107306001260AF07F0046
:1004B0002F70DE601E61C3F8080528780028DFD1A0
:1004C0004FF0A04A4FF4005B4FF48040CAF80CB5DF
:1004D000CAF80805D3F810010028FBD0C3F8102192
:1004E000D9F800000130C9F80000D3F80004002852
:1004F00049D0384F02200190019E3868042E00F147
:100500000100386009D8019F019E0198E75D8F5571
:100510000130019001980428F5D9C3F80415CAF8F0
:1005200008B5CAF80CC55A60D3F800010028FBD002
:100530000320C3F80021C3F80002D3F80C010028FF
:10054000FBD0C3F80C21D3F810010028FBD0C3F86E
:100550001021DEF800000130CEF800000120C3F8C1
:100560000445CAF808C51A605860D3F8000100288D
:10057000FBD00720C3F80021C3F800022878002828
:100580007FF47EAFA0E702200190019ED8F8000022
:10059000042E00F10100C8F80000BED8019E0198A9
:1005A0008A550130019001980428F7D9B5E700BFBA
:1005B0000090004000E100E00010004060000020DA
:1005C0009C010020900100208801002056555555BF
:1005D0009007000098010020940100208C01002069
:1005E0009C020020FEE700BFFEE700BFFEE700BF61
:1005F000FEE700BF10B44FF080414FF08052002062
:10060000C1F80C01404BC1F81001C1F83805D2F80F
:100610000414C3F82015D2F80814C3F82415D2F82E
:100620000C14C3F82815D2F81014C3F82C15D2F8FE
:100630001414C3F83015D2F81814C3F83415D2F8CE
:100640001C14C3F84015D2F82014C3F84415D2F88E
:100650002414C3F84815D2F82814C3F84C15D2F85E
:100660002C14C3F85015D2F83014C3F85415D2F82E
:100670003414C3F86015D2F83814C3F86415D2F8EE
:100680003C04C3F86805D2F840042049C3F86C055F
:100690000968D2F84424C3F8702508291AD04FF00D
:1006A0008043D3F80024D20744BF6FF00102C3F89F
:1006B0000024174AD2F8883043F47003C2F8883017
:1006C000BFF34F8FBFF36F8F124B134A1A605DF861
:1006D000044B7047114B1B68002BE0D11048114AA6
:1006E000114C04601149124BFB20C2F818050A682E
:1006F0001B68104822F00F0203F00F0313434FF45E
:1007000000720B600260CAE700C0004030010010B8
:1007100000ED00E0600100200090D00334010010E3
:100720008C56004000F0004048810300E40E004079
:1007300058020010409602400649074A074B9B1A90
:1007400003DD043BC858D050FBDCFFF753FFFFF735
:100750007BFD0000A8070000000000206C010020C5
:10076000FEE7FEE7FEE7FEE7FEE7FEE7FEE7FEE761
:10077000FEE7FEE7F8B500BFF8BC08BC9E46704730
:10078000F8B500BFF8BC08BC9E46704700000020CA
:10079000000000001A0000004E00000000000000F1
:0807A000A0FAFF7F0100000038
:1007A8000000000000000000000000000000000041
:1007B8000000000000000000000000000000000031
:1007C8000000000000000000000000000000000021
:1007D8000000000000000000000000000000000011
:1007E8000000000000000000000000000000000001
:1007F80000000000000000000000000000000000F1
:100808000004FFC1FB010000000000000000000020
:1008180000000000000000000000000000000000D0
:1008280000000000000000000000000000000000C0
:1008380000000000000000000000000000000000B0
:1008480000000000000000000000000000000000A0
:100858000000000000000000000000000000000090
:100868000000000000000000000000000000000080
:100878000000000000000000000000000000000070
:100888000000000000000000000000000000000060
:100898000000000000000000000000000000000050
:1008A8000000000000000000000000000000000040
:1008B8000000000000000000000000000000000030
:1008C8000000000000000000000000000000000020
:1008D8000000000000000000000000000000000010
:1008E8000000000000000000000000000000000000
:1008F80000000000000000000000000000000000F0
:0C0908000090D003250200000102000056
:0400000300000739B9
:00000001FF
