:1000000000800020DD060000050700004905000013
:100010004D050000510500005505000000000000DE
:100020000000000000000000000000000F070000BA
:100030001107000000000000130700001507000072
:100040001707000017070000170700001707000038
:100050001707000017070000170700001707000028
:100060001707000017070000170700001707000018
:100070001707000017070000170700001707000008
:1000800017070000170700001707000017070000F8
:1000900017070000170700001707000017070000E8
:1000A00017070000170700001707000017070000D8
:1000B0001707000017070000000000000000000004
:1000C00017070000170700001707000017070000B8
:1000D00017070000170700001707000017070000A8
:1000E00017070000170700001707000000000000B6
:1000F00000000000170700000000000017070000C4
:1001000000000000000000000000000000000000EF
:1001100000000000000000000000000000000000DF
:1001200000000000000000000000000000000000CF
:1001300000000000000000000000000000000000BF
:1001400000000000000000000000000000000000AF
:10015000000000000000000000000000000000009F
:10016000000000000000000000000000000000008F
:10017000000000000000000000000000000000007F
:10018000000000000000000000000000000000006F
:10019000000000000000000000000000000000005F
:1001A000000000000000000000000000000000004F
:1001B000000000000000000000000000000000003F
:1001C000000000000000000000000000000000002F
:1001D000000000000000000000000000000000001F
:1001E000000000000000000000000000000000000F
:1001F00000000000000000000000000000000000FF
:1002000010B5054C237833B9044B13B10448AFF350
:1002100000800123237010BD6C010020000000004D
:100220003407000008B5034B1BB103490348AFF383
:10023000008008BD000000007001002034070000AD
:10024000A3F5803A704700BF174B002B08BF134B34
:100250009D46FFF7F5FF00218B460F461348144AD1
:10026000121A00F063F80E4B002B00D098470D4B8C
:10027000002B00D098470020002104000D000D48FD
:10028000002802D00C48AFF3008000F02BF82000CB
:10029000290000F0A1F800F011F800BF00000800EC
:1002A0000000000000000000008000206C01002021
:1002B00098020020000000000000000008B5074B75
:1002C000044613B10021AFF30080054B1868836A20
:1002D00003B19847204600F031F800BF000000004D
:1002E0003007000070B50D4D0D4C641BA4100026A6
:1002F000A64209D10B4D0C4C00F00EFA641BA41061
:100300000026A64205D170BD55F8043B984701363A
:10031000EEE755F8043B98470136F2E76401002008
:1003200064010020640100206801002002440346AB
:10033000934200D1704703F8011BF9E7FEE700BFC5
:100340001F4B204A2048214970B40426C3F8106589
:100350000726C3F80062C3F8142540F25B62C3F8B5
:100360001805C3F8382540F203104E22C3F83C1597
:10037000174DC3F834050021C3F80825154CC3F800
:1003800004556FF08E000122C3F80011C3F80C1160
:10039000C3F81C45C3F82405C3F82C15C3F8302551
:1003A000D3F8502642F0F85242F4F812C020C3F8B5
:1003B0005026C3F84405C3F80C1570BC704700BF45
:1003C0000010004008010001FF00030055555500D2
:1003D00094010020002941762DE980484FF08043A8
:1003E00000210122C3F8001183B019461A60D1F828
:1003F0000031002BFBD04FF0A0474C4DDFF8388187
:10040000DFF83891002000F0A7F8FFF799FF0123EB
:10041000002247494748DFF828E1DFF828C1C7F83C
:1004200034373C46C7F838374FF480466B604FF49A
:1004300000572B46C5F810214FF48045C4F80C75C1
:10044000C4F80855D3F81051002DFBD0C3F8102183
:10045000DEF800500135CEF80050D3F80054002DDE
:100460004CD002250195DDF804A0D8F80050BAF16F
:10047000030F05F10105C8F800500DD8DDF804B0F0
:10048000DDF804A0019D10F80BB001F80AB00135A9
:100490000195019D032DF1D9C3F80415C4F8087521
:1004A000C4F80C655A60D3F80051002DFBD0032529
:1004B000C3F80021C3F80052D3F80C51002DFBD033
:1004C000C3F80C21D3F81051002DFBD0C3F8102134
:1004D000DCF800500135CCF800500125C3F80405C4
:1004E000C4F808651A605D60D3F80051002DFBD098
:1004F0000725C3F80021C3F800529DE702250195A6
:10050000DDF804A0D9F80050BAF1030F05F1010598
:10051000C9F80050C0D8DDF804A0019D01F80A20F8
:1005200001350195019D032DF5D9B5E70010004077
:10053000600000209401002090010020880100202C
:100540008C01002094020020FEE700BFFEE700BF00
:10055000FEE700BFFEE700BF0E4B10B400220121F2
:100560000324C3F80425C3F808455960C3F840259F
:10057000C3F84021C3F84421C3F84821C3F84C21F3
:10058000D960C3F80022C3F81005D9605DF8044BA8
:10059000704700BF0080004010B44FF080414FF022
:1005A00080520020C1F80C01404BC1F81001C1F885
:1005B0003805D2F80414C3F82015D2F80814C3F88B
:1005C0002415D2F80C14C3F82815D2F81014C3F867
:1005D0002C15D2F81414C3F83015D2F81814C3F837
:1005E0003415D2F81C14C3F84015D2F82014C3F8FF
:1005F0004415D2F82414C3F84815D2F82814C3F8C7
:100600004C15D2F82C14C3F85015D2F83014C3F896
:100610005415D2F83414C3F86015D2F83814C3F85E
:100620006415D2F83C04C3F86805D2F840042049A8
:10063000C3F86C050968D2F84424C3F8702508296A
:100640001AD04FF08043D3F80024D20744BF6FF094
:100650000102C3F80024174AD2F8883043F470032B
:10066000C2F88830BFF34F8FBFF36F8F124B134A1E
:100670001A605DF8044B7047114B1B68002BE0D1EA
:100680001048114A114C04601149124BFB20C2F86A
:1006900018050A681B68104822F00F0203F00F03C8
:1006A00013434FF400720B600260CAE700C00040C1
:1006B0003001001000ED00E0600100200090D00348
:1006C000340100108C56004000F0004048810300C7
:1006D000E40E004058020010409602400649074AC6
:1006E000074B9B1A03DD043BC858D050FBDCFFF7D7
:1006F00053FFFFF7A9FD00004007000000000020A5
:100700006C010020FEE7FEE7FEE7FEE7FEE7FEE7FE
:10071000FEE7FEE7FEE7FEE7F8B500BFF8BC08BC61
:100720009E467047F8B500BFF8BC08BC9E467047AF
:080730000000002000000000A1
:0807380008FBFF7F0100000037
:1007400000000000000000000000000000000000A9
:100750000000000000000000000000000000000099
:100760000000000000000000000000000000000089
:100770000000000000000000000000000000000079
:100780000000000000000000000000000000000069
:100790000000000000000000000000000000000059
:1007A0000004FFC1FB010000000000000000000089
:1007B0000000000000000000000000000000000039
:1007C0000000000000000000000000000000000029
:1007D0000000000000000000000000000000000019
:1007E0000000000000000000000000000000000009
:1007F00000000000000000000000000000000000F9
:1008000000000000000000000000000000000000E8
:1008100000000000000000000000000000000000D8
:1008200000000000000000000000000000000000C8
:1008300000000000000000000000000000000000B8
:1008400000000000000000000000000000000000A8
:100850000000000000000000000000000000000098
:100860000000000000000000000000000000000088
:100870000000000000000000000000000000000078
:100880000000000000000000000000000000000068
:100890000000000000000000000000000000000058
:0C08A0000090D0032502000001020000BF
:04000003000006DD16
:00000001FF
