:10000000008000205D2C0000852C000065070000AA
:10001000690700006D070000710700000000000084
:100020000000000000000000000000008F2C000015
:10003000912C000000000000932C0000952C000083
:100040007D200000972C0000E920000049210000DD
:10005000972C0000972C0000972C0000972C000094
:10006000972C0000972C0000972C0000972C000084
:10007000972C0000972C0000972C0000972C000074
:10008000972C0000972C0000972C0000972C000064
:10009000972C0000972C0000972C0000972C000054
:1000A000972C0000972C0000972C0000972C000044
:1000B000972C0000972C00000000000000000000BA
:1000C000972C0000972C0000972C0000972C000024
:1000D000972C0000972C0000972C0000972C000014
:1000E000972C0000972C0000972C000000000000C7
:1000F00000000000972C000000000000972C00007A
:1001000000000000000000000000000000000000EF
:1001100000000000000000000000000000000000DF
:1001200000000000000000000000000000000000CF
:1001300000000000000000000000000000000000BF
:1001400000000000000000000000000000000000AF
:10015000000000000000000000000000000000009F
:10016000000000000000000000000000000000008F
:10017000000000000000000000000000000000007F
:10018000000000000000000000000000000000006F
:10019000000000000000000000000000000000005F
:1001A000000000000000000000000000000000004F
:1001B000000000000000000000000000000000003F
:1001C000000000000000000000000000000000002F
:1001D000000000000000000000000000000000001F
:1001E000000000000000000000000000000000000F
:1001F00000000000000000000000000000000000FF
:1002000010B5054C237833B9044B13B10448AFF350
:1002100000800123237010BD900300200000000027
:100220008863000008B5034B1BB103490348AFF3D3
:10023000008008BD000000009403002088630000D7
:10024000A3F5803A704700BF174B002B08BF134B34
:100250009D46FFF7F5FF00218B460F461348144AD1
:10026000121A00F063F80E4B002B00D098470D4B8C
:10027000002B00D098470020002104000D000D48FD
:10028000002802D00C48AFF3008000F02BF82000CB
:10029000290000F099F800F011F800BF00000800F4
:1002A00000000000000000000080002090030020FB
:1002B0006C0D0020000000000000000008B5074B96
:1002C000044613B10021AFF30080054B1868836A20
:1002D00003B19847204600F031F800BF000000004D
:1002E000B85D000070B50D4D0D4C641BA4100026C8
:1002F000A64209D10B4D0C4C05F052FD641BA41015
:100300000026A64205D170BD55F8043B984701363A
:10031000EEE755F8043B98470136F2E784010020E8
:10032000840100208401002088010020024403464B
:10033000934200D1704703F8011BF9E7FEE700BFC5
:100340001B4B1C4A1C481D4970B40326C3F80062AD
:10035000D226C3F844650426C3F810656FF08E06F4
:10036000C3F81C25C3F8246500220126C3F82C25F8
:10037000C3F830652726C3F85465114CC3F814053B
:1003800040F25B60C3F818450E4DC3F8380540F2E3
:1003900003144E20C3F83C55C3F83445C3F8080590
:1003A000C3F80415C3F81021C3F80C2570BC7047BE
:1003B000001000400029417608010001640000207F
:1003C000FF000300555555002DE9F04F2DED028B30
:1003D0004FF4004185B0002000F09AFB002840F067
:1003E000BA8100F085FBBE48BE4BBF4ABF4CC2F885
:1003F00044451B1ADB081B044FF0A044BC49BD4D0B
:10040000C2F8401543F00306C0200123C2F84C5542
:10041000C2F84815C2F80405B749C4F83437304665
:10042000C4F8383708EE106A00F002FD00F0CAFB8D
:100430000028FBD14FF080450123C5F8000101469B
:100440002B60AE484FF40072FFF770FFD5F8003113
:10045000002BFBD0002002F0E1FBFFF771FFA84B5F
:10046000DFF8D082DFF8D0A2DFF8D0B2A54C0122AD
:100470002A6003F00703A44A0193A04B12680021ED
:10048000C8F8001003F5007903F5FE750026002773
:10049000B2F5A06F6ED24FF0A0439C48C4F804059B
:1004A000002262604FF400514FF48042C3F80815F7
:1004B000C3F80C25B8F800208E49012352BA4280B7
:1004C0004B60CB602360D4F80031002BFBD00023BD
:1004D000C4F80031D4F80C31002BFBD00023C4F851
:1004E0000C31D4F81031002BFBD00021C4F81011CE
:1004F000DAF80030D8F8002001330132322BC8F886
:10050000002000F2B080CAF800304FF0A0434FF452
:100510008041C3F8081500227D49226001236360F1
:10052000C4F804157B490A60D4F81021002A40F071
:10053000878040F60101D4F81021002A7BD10133D5
:100540008B42F8D1734A4FF4006313600123E360D8
:100550002361D4F81031002BFBD0DBF800306A4A5D
:1005600001331268CBF800300023B2F5A06FC4F855
:10057000103190D3019B002B40F0E280604A5F4B2A
:10058000D3E90001E3E802674B45E2E80201F7D155
:10059000614A5D499FED617A00230B601846029322
:1005A0008DF80C3094465CF8041F013301FB03FE08
:1005B00007EE90EAF8EE677A802B37EE277A084448
:1005C000F1D107EE900AF8EEE77A0092C7EE277AAB
:1005D00017EE900A02F0C4FC41EC100B02A90520B2
:1005E00002F016FD00209FED4D7A009A034652F866
:1005F000041F013301FB03FC07EE90CAF8EE677A93
:10060000802B37EE277A0844F1D107EE900AF8EEF6
:10061000E77A4349C7EE276A18EE100AFDEEE67A3C
:1006200017EE902A00F0D0FC00F0CCFA0028FBD1A5
:10063000354B1A682CE7374AB3F5006F136085D045
:10064000384B1B682BB94FF0A0434FF40052C3F84E
:100650000C25354A136801331360D4F800347BB994
:10066000294B1A6880E7DBF800302E4ACAF80010E0
:100670000A2B94BF002301231360CBF8001044E73A
:100680002A4AD8F800301168214A9078D278013B84
:1006900002EB00229BB2254801319342016006D053
:1006A0002349194A0B68126801330B605CE7114B50
:1006B00001225A60D3F84035A3F59053053B7F2BB8
:1006C00005D80E4951F82320013241F823200E4865
:1006D000084B0268012101320260D96044E700BF83
:1006E0008C630000B463000000F0014040800040D3
:1006F0000411004000800040BC5D0000B0030020F9
:100700008C01002000100040B00500206400002093
:10071000C4050020C8060020880100200000000059
:10072000D05D0000B4050020BC050020C0050020FD
:10073000B8050020CC060020D0060020C40600200A
:10074000064B074A002053F8041F42F8041F9D423D
:100750001860F8D11CE700F083FE42E6AC030020ED
:1007600088010020FEE700BFFEE700BFFEE700BFF4
:10077000FEE700BF10B44FF080414FF080520020E0
:10078000C1F80C01404BC1F81001C1F83805D2F88E
:100790000414C3F82015D2F80814C3F82415D2F8AD
:1007A0000C14C3F82815D2F81014C3F82C15D2F87D
:1007B0001414C3F83015D2F81814C3F83415D2F84D
:1007C0001C14C3F84015D2F82014C3F84415D2F80D
:1007D0002414C3F84815D2F82814C3F84C15D2F8DD
:1007E0002C14C3F85015D2F83014C3F85415D2F8AD
:1007F0003414C3F86015D2F83814C3F86415D2F86D
:100800003C04C3F86805D2F840042049C3F86C05DD
:100810000968D2F84424C3F8702508291AD04FF08B
:100820008043D3F80024D20744BF6FF00102C3F81D
:100830000024174AD2F8883043F47003C2F8883095
:10084000BFF34F8FBFF36F8F124B134A1A605DF8DF
:10085000044B7047114B1B68002BE0D11048114A24
:10086000114C04601149124BFB20C2F818050A68AC
:100870001B68104822F00F0203F00F0313434FF4DC
:1008800000720B600260CAE700C000403001001037
:1008900000ED00E0640100200090D003340100105E
:1008A0008C56004000F0004048810300E40E0040F8
:1008B0005802001040960240F0B595B000241D4645
:1008C0000E460846174601F0BBFA3046234608227A
:1008D000099505A91A9D08970D950A948DF82C4045
:1008E0000C9401F011FB9DF814308DF81140DDE9F6
:1008F000061003F00302012ACDE9020128D0022AE2
:1009000004D0304601F0A0FA15B0F0BDBDF8165085
:10091000C3F3C2038DF81030C5F389150827082DDD
:100920002C4628BF08243B4622460EA9304601F03B
:10093000EBFA2D1B214608AB02AA0EA8274400F0B3
:1009400011FD002DEBD1304601F07EFA15B0F0BD5F
:10095000BDF81470059DC7F38312C3F3C2040EA93A
:100960003046920008238DF81040C7F3831701F03A
:10097000CBFAC5F3952508AB3A4628460EA9009355
:1009800002AB00F077FC304601F05EFA15B0F0BD26
:10099000014B01221A70704718070020704700BFF2
:1009A00000B583B0044B0093044A4023FFF784FF53
:1009B00003B05DF804FB00BFC1090000D8060020A9
:1009C00038B50E480E4D03780E4CEB5C00252570B3
:1009D000D2B253B1043002F0CDF858B90A4B1B78AB
:1009E00013B12378002BFCD038BD0C3001F03AFE57
:1009F0000028F3D000F034FDF0E700BF68010020CC
:100A0000580D002018070020D40600202DE970435F
:100A100019481A4A0378D35C88B02BB3043002F02B
:100A200027F8174D0FCD6C460FC495E80F004FF017
:100A3000EB7684E80F004FF006084FF0FF394FF0D7
:100A4000FF344FF0FF350C48069600226946CDE989
:100A50000089CDE9024501F0CDFA48B9094B0022E1
:100A60001A7008B0BDE870830C3001F07DFDD8E746
:100A700000F0F6FCF2E700BF68010020580D0020EE
:100A8000E85D0000D4060020F0B5154D0FCD89B00B
:100A90006C460FC495E80F004FF0EB7C84E80F0024
:100AA00006264FF0FF374FF0FF344FF0FF350D4A69
:100AB0000D48CDF818C06946CDE90067CDE902457B
:100AC00001F098FA20B9094B01221A7009B0F0BD63
:100AD00000F0C6FC054B01221A7009B0F0BD00BF42
:100AE000E85D00009109000068010020D4060020A4
:100AF00008B5FFF7C9FF0448042100F037FB034B9A
:100B000001225A7108BD00BFCC6300007C010020A7
:100B100038B50C4B0C48002400250022C3E90045E1
:100B2000FF21C3F81824996083F82024C3F8142403
:100B300001F03AF9044610B9044801F019FA2046C8
:100B400038BD00BFF0070020DC630000405E0000FD
:100B500099B10E4B0E495B1ADB0815D030B4002258
:100B60000C4D02E0013293420BD035F82240844212
:100B7000F8D151F8320030BC7047054951F83000C7
:100B80007047002030BC704718467047CC630000A7
:100B90008C6300008C030020094B013903EBC0007B
:100BA00003290BD8DFE801F004020806042070478F
:100BB00002207047407970470079704700207047E5
:100BC0008C6300002DE9F047934CD4E900239A424E
:100BD00084B063D00023C4F81834BFF34F8FD4E936
:100BE000013503EA0501CA1C04EB820614F8222031
:100BF000500719D52768327802F00302012A43D042
:100C0000022A03D17288023303EB921305EA03012F
:100C1000D4F81804CA1C04EB820628B99F4239D9BB
:100C200014F822205207E6D404EB81015A1CC9684B
:100C300001912A4004EB820201F00301D268029282
:100C4000022903F102062DD0012900F09080D4F88A
:100C500010543DB12B6828469B689847EB681D6887
:100C6000002DF7D16D486E4B6E49C01AC0080004C4
:100C700040F0020000F0DCF8D4E90030C01A18BFE0
:100C8000012004B0BDE8F08732880233C2F383123A
:100C90001344BBE7676004B0BDE8F087002004B0F0
:100CA000BDE8F087BDF806305F48C3F38919B9F194
:100CB000500FC84628BF4FF0500868F38F1308F153
:100CC0000801ADF8063001F071F807460028BED0E3
:100CD00001F0B6F80023082201A9384601F0E0F837
:100CE00025EA06030133B8EB830F4FEA830A78D96C
:100CF000BAF1000F00F0888005EA06010331A8EB85
:100D00000A0804EB81010823524638465FFA88F846
:100D100001F0C6F8454942460AF10803384601F099
:100D2000BFF809F1030906EB9906D4F81834002B33
:100D300066D1D4F8105465B1EB685A792846394623
:100D4000002A59D02B681B689847EB681D68002D56
:100D5000F2D1384601F078F8002000F0C9FBD4F851
:100D6000183403B96660002000F0CAFB84E7BDF8C0
:100D700004302D48C3F38312062A28BF0622911C93
:100D800062F389138900ADF8043001F00FF80746CB
:100D900000283FF45CAF01F053F80023082201A9BA
:100DA000384601F07DF8BDF8043013F4707FBCD0F4
:100DB0004FF00008314629404FEA880303310833D9
:100DC00004EB81010422384601F06AF8BDF80430D2
:100DD00008F10108C3F38313434506F10106E9D87E
:100DE000A3E705EA0601033104EB8101424608232B
:100DF000384601F055F894E71D68002D9CD1A8E70E
:100E0000384601F021F837E70849424608233846BA
:100E100001F046F885E700BFF0070020B46300004A
:100E20008C630000285E0000DC630000FC070020EB
:100E30002DE9F04F624C87B006460020A56801916D
:100E400000F056FBD4E9012327681A440132D21B73
:100E5000012A00F2858004F21C4804F5836A04F23A
:100E600014491BE0BDF80E30C3F389130333090C9A
:100E70000BEB930B4846009100F086FB009900288D
:100E80003ED04046C4F804B000F052FBD4E9011350
:100E9000226819440131891A012962D8012140468A
:100EA00000F046FB504600F05FFB484600F05CFB5C
:100EB000D4E9013C03EA0C02D11C04EB810014F8D4
:100EC00021E01EF0040F0EF0040129D104EB820290
:100ED000591CD268039201EA0C0104EB810102F073
:100EE0000302012AC96803F1020B32D0022AB9D0E9
:100EF00000214846009100F047FB00990028C0D12E
:100F00004046C1E743880BEB93130CEA0302D11C64
:100F100004EB810014F8211001F004010029D5D060
:100F200090F800E00EF0030EBEF1010F0BD0BEF101
:100F3000020F03F1020B02F1030EE3D004EB8E006B
:100F40000029EDD1C2E702880233C2F383121344B1
:100F5000DBE7BDF80C30C3F38313090C9B4489E72E
:100F60003A461340033302320521002044F823108F
:100F7000226000F0C5FA0021124800F0CBFA80F39D
:100F80001000F1007B1C2B40019A01F038013D401C
:100F900004EB830341F001010004033540EA1646E7
:100FA00041EA8221DE6044F8251094F820341BB118
:100FB000FFF708FE0028FBD107B0BDE8F08F00BFA7
:100FC000F00700200C0C00202DE9F04F654C89B093
:100FD00007460020CDE90212A56800F089FAD4E99D
:100FE000012326681A440132921B022A00F28580EE
:100FF00004F21C4804F5836A04F214491BE0BDF8AE
:101000001630C3F389130333090C0BEB930B4846DB
:10101000019100F0B9FA019900283ED04046C4F889
:1010200004B000F085FAD4E90113226819440131B3
:10103000891A022962D80121404600F079FA504607
:1010400000F092FA484600F08FFAD4E9013C03EA36
:101050000C02D11C04EB810014F821E01EF0040FF7
:101060000EF0040129D104EB8202591CD2680592CA
:1010700001EA0C0104EB810102F00302012AC968B4
:1010800003F1020B32D0022AB9D000214846019167
:1010900000F07AFA01990028C0D14046C1E74388A0
:1010A0000BEB93130CEA0302D11C04EB810014F840
:1010B000211001F004010029D5D090F800E00EF0D5
:1010C000030EBEF1010F0BD0BEF1020F03F1020BB4
:1010D00002F1030EE3D004EB8E000029EDD1C2E74C
:1010E00002880233C2F383121344DBE7BDF81430E5
:1010F000C3F38313090C9B4489E73246134003333F
:1011000003324521002044F82310226000F0F8F952
:10111000B31C2B4004EB8303039A1348DA600021CD
:1011200000F0F8F980F31000F900731C2B40029ACC
:1011300001F03801354004EB830341F04101000424
:10114000033540EA174741EA8221DF6044F8251061
:1011500094F820341BB1FFF735FD0028FBD109B00E
:10116000BDE8F08FF00700200C0C002030B4154DC6
:10117000D5F810140446002071B10B4601E01B683D
:1011800053B1DB681A798242F9D101300A28F3D1D0
:101190004FF0FF3030BC7047E3681871D5F8103459
:1011A0004BB1DA68E36812681A60D5F81034DB686E
:1011B0001C6030BC7047C5F81044E268136030BC56
:1011C000704700BFF007002038B5094BD3F8104432
:1011D000012583F820544CB1E3685D7123682046F3
:1011E0005B689847E3681C68002CF5D138BD00BFE8
:1011F000F007002030B5C38885B004460D461BBB00
:10120000217A05291ED0627A82B9134AA08852F841
:10121000212003920021FFF79BFC039A0F4903460C
:10122000284605B0BDE8304000F022BAA088FFF79C
:10123000B3FC0B4B0B4953F82020284600F018FA5A
:10124000217AE2E705B030BD074A00920749084A13
:10125000284600F00DFAD3E7185F0000785E000022
:10126000F45E0000745E00006C5E0000545E0000DE
:101270004C5E00002DE9F04385B04FF0000C0C9C53
:10128000814694F80C8084F80CC00E461746184628
:1012900021461D46FFF7AEFF062F09D8DFE807F00D
:1012A000042E343B444F1F004946204600F0E0F92D
:1012B0002B7A052B05D06B7A5BB92749204600F0C5
:1012C000D7F9204600F0C8F984F80C8005B0BDE8D5
:1012D000F083224A2249204600F0CAF9EDE7D6E918
:1012E0000413F2680393B3680291CDE900324946D2
:1012F000D6E90023204600F0BBF9D9E73268494619
:10130000204600F0B5F9D3E7D6E900234946204648
:1013100000F0AEF9CCE7B3680093D6E90023494664
:10132000204600F0A5F9C3E7D6E902320192009306
:10133000D6E900234946204600F09AF9B8E7D6E9F5
:101340000321B3680291CDE900324946D6E9002372
:10135000204600F08DF9ABE7845E00006C5E000073
:10136000745E0000082900D970472DE9F04F9B46B4
:1013700083B000241B7B8BF80C400D460646594673
:10138000104690460193DFF8D0902C4FFFF732FFC4
:1013900005E0325D013400F06BF9082C09D0A5425C
:1013A00039465846F5D84946013400F061F9082C11
:1013B000F5D12349DFF8A490224C234F584600F082
:1013C00057F94FF0000A0DE0D15D11F0970F08BFFB
:1013D0002E22214658460AF1010A00F049F9BAF1D5
:1013E000080F10D0554505D916F80A207E2AEBD9EA
:1013F0002E22EEE7494658460AF1010A00F038F974
:10140000BAF1080FEED198F80830052B02D098F801
:10141000093063B90D49584600F02AF9584600F0E2
:101420001BF9019B8BF80C3003B0BDE8F08F084A24
:101430000849584600F01CF9ECE700BF885E000040
:10144000945E0000985E0000875F0000845E0000EC
:101450006C5E0000745E0000905E0000805E000024
:1014600000B585B00346002101AA44F20100CDE990
:101470000111039300F004F805B05DF804FB00BF10
:1014800010B572B6FFF7A0FEFFF79CFB0028FBD15A
:10149000104B114C1149E41AE408240444F00100F3
:1014A000FFF7C6FC0E4B1B68DB0700D500BE0D49DD
:1014B00044F00200FFF7BCFCBFF34F8F0A490B4B0F
:1014C000CA6802F4E0621343CB60BFF34F8F00BFE2
:1014D000FDE700BF8C630000B46300002C5F0000D8
:1014E000F0ED00E0385F000000ED00E00400FA05D8
:1014F00072B6024A1368013313607047AC0C0020C7
:10150000034A1368013B136003B962B6704700BF1A
:10151000AC0C002010B4034653E8000F0A4643E821
:10152000002494F0000FF7D15DF8044B704700BF22
:1015300010B4034653E8002F02EB010043E8000417
:1015400094F0000FF6D15DF8044B704710B40346D9
:1015500053E8002FA2EB010043E8000494F0000FD1
:10156000F6D15DF8044B704710B40346012253E8EE
:10157000001F41EA020043E8000494F0000FF6D196
:101580005DF8044B704700BF10B40346002253E8D7
:10159000000F00EA020143E8001494F0000FF6D1B6
:1015A0005DF8044B704700BFB8B130B4D0E9011208
:1015B000521A0468D2B2531E2160DBB242B10168F4
:1015C0000A685C1E551C0D601370E3B2FF2BF6D148
:1015D00003680020187130BC70470E20704700BFB0
:1015E00038B504460020FFF783FFD4E900311A68BC
:1015F0008A4215D9511E19602168A3680868258A96
:1016000012F8012CE4681B1A0879DBB2984205FB3A
:10161000024400D20B710020FFF772FF204638BD54
:1016200000240020FFF76CFF204638BD38B5054682
:1016300000200C46FFF75CFF2A681368591C1160F4
:10164000E9682A8A641AB4FBF2F41C70BDE83840D9
:101650000020FFF755BF00BF826842B110B50446B5
:1016600043690168006998470023A36010BD704773
:101670000EB400B582B0039921B104AB01AA019365
:1016800000F0ACF802B05DF804EB03B0704700BFA7
:101690002DE9F04F164683B0B142DDE90C920F46BA
:1016A00005469A46C0F095800B464FF00108B3FB03
:1016B000F6F39E4208F10108F9D9D04538BFD0466B
:1016C00012F00103019302D1B9F1000F5ED1AA68B3
:1016D000012403E00AF1FF3A06FB04F4BAF1010F1A
:1016E000F8D8B7FBF4F39E42F6D9DFF8ECA007E098
:1016F000B442B4FBF6F31AD3AA681C46B7FBF3F363
:101700001AF803B0BBF10A0F04FB137728D02B683B
:10171000511CA96003F802B0D5E901329A42E7D31F
:101720002846FFF799FFB4FBF6F3B442E4D2019BDD
:101730009BB1B9F1000F10D02024C84509F1FF3941
:101740000BD2AB682A68591CA960D454D5E9013280
:101750009A4214D2B9F1000FEFD103B0BDE8F08F77
:10176000511C2B68A9604FF00D019954D5E9013245
:101770009A42CCD32846FFF76FFFAA68C7E72846EE
:10178000FFF76AFFB9F1000FD7D1E6E793071AD444
:101790002024AA68C84502F1010199D22B68A960EA
:1017A0009C54D5E901329A4209F1FF3903D2B9F1CB
:1017B000000FEFD18CE72846FFF74EFFAA68B9F17A
:1017C000000FE7D184E7BAF1000F0CBF30242024CA
:1017D000DFE74FF0010870E7485F0000002900F0E4
:1017E00054822DE9F04FDFF8B8950C7885B00646A5
:1017F00090460D464FF00D0A10E00A2CB36800F039
:10180000AD803268591CB160D454D6E901329A4295
:1018100080F0A0802C78002C00F087800135002C0F
:1018200000F08380252CE8D1294600270D4611F8C9
:10183000012B2D2A00F08880302A00F088802B2A86
:101840007AD02A2A00F09980A2F13003092B4FF0B8
:1018500000040BD804EB840402EB440415F8012FB8
:10186000A2F13003092BA4F13004F3D92E2A00F0A1
:101870009080002301E015F8012F02F0FB01682998
:10188000F9D0252A00F07781583AD1B2202947D8DB
:10189000202A45D8DFE812F0350144004400440016
:1018A0004400440044004400440044004400430118
:1018B0001301440044004400440013014400440068
:1018C0004400440044004400D20044004400A2000C
:1018D000440094004400440035010120984202462F
:1018E00038BF1A460292002C40F05081B80740F1F0
:1018F0006E81002B40F04E821C46BBF1000FC0F2FF
:101900000A827A0700F11A8207F00302022A00F025
:10191000EA81CDE9004759460A223046FFF7B8FE72
:1019200001352C78002C7FF479AF337B002B40F00D
:101930001C8105B0BDE8F08F0D4611F8012B2D2A52
:1019400047F004077FF478AF47F001076EE747F0F0
:1019500002076BE73046FFF77FFE5BE73268591CF2
:10196000B16002F803A0D6E901239342FFF449AF26
:101970003046FFF771FEB36843E7D8F800301A1D10
:10198000C8F800206A781C682E2A05F101057FF44A
:1019900070AF6A78A2F13003092B05F101054FF011
:1019A00000033FF66AAF03EB830302EB430315F832
:1019B000012FA2F130010929A3F13003F3D95CE72B
:1019C000D8F80020111DC8F8001011683046CDE984
:1019D00000470A22FFF75CFE0135A2E7D8F8003085
:1019E0001A1DC8F8002017F00107D3F800B040F026
:1019F000F080BBF1000F03D0584601F043FB0746CF
:101A0000BC4240F24381002C00F04081202205E0DE
:101A1000BC4200F03B81002C00F03881B168336893
:101A2000481CB0605A54D6E90130984204F1FF34A2
:101A3000EED33046FFF710FE2022E9E7D8F8002069
:101A4000131DC8F80030B36831681768581C30227D
:101A5000B060CA54D6E90123934280F0EF80326827
:101A6000581C7821B060D154D6E901329A4280F0F6
:101A7000E0800F2F03D93B461B090F2BFCD84FF0FA
:101A8000805406E00F2C4FEA14137FF649AFB2687A
:101A90001C46B7FBF4F319F803B0BBF10A0F04FBC3
:101AA000137754D03368511CB16003F802B0D6E903
:101AB00001329A42E6D33046FFF7CEFDE2E7D8F88E
:101AC0000020111DC8F80010D2F800B08BEAEB72AC
:101AD000A2EBEB72092A7FF700AFDFF8C8C2012042
:101AE00011466329ACFB02E200F101004FEAD20289
:101AF000F6DC9842024638BF1A460292002C45D1C5
:101B0000F4E6D8F80020111DC8F80010116830461E
:101B1000CDE900471022FFF7BBFD013501E7D8F8FA
:101B200000301A1DC8F800201C78B3680A2C00F099
:101B300011813268591CB160D454D6E901329A42FD
:101B4000FFF4EEAE3046FFF787FD0135E9E6336876
:101B5000511CB16003F802A0D6E901329A42A1D328
:101B60003046FFF779FDB2689CE7304605B0BDE826
:101B7000F04FFFF771BDB3683168581CB060CA54AC
:101B8000D6E901329A42DDD20135CAE6BBF1000F37
:101B900059DB7A0757D4B80702D5002B3FF4ADAE16
:101BA000F9073FF5AAAE94B120220299A142BFF4F1
:101BB000A4AEB168481CB06030684254D6E9010157
:101BC000814204F1FF3480F0D480002CEDD1002458
:101BD00093E69BF80030002B00F0E080B0685F4691
:101BE000CBF101020A2B02EB070B3CD0411CB16088
:101BF00031680B54D6E90130984226D217F8013FDC
:101C0000002BEFD15C457FF68BAE202702E05C45D0
:101C10003FF486AEB2683368511CB1609F54D6E978
:101C200001329A4204F1FF34F1D33046FFF714FD3C
:101C3000EDE73046FFF710FDB2681AE73046FFF7D0
:101C40000BFDB3680BE7013CA5E730460292FFF7B6
:101C500003FD17F8013F002BD4D0029AB0680A2B7D
:101C600002EB070BC2D1411CB160316801F800A042
:101C7000D6E901108842B9D33046CDE90232FFF7E8
:101C8000EBFCDDE90232B068B0E770479BF800403A
:101C9000002C3FF445AE0A2CB0680ED03368421CCD
:101CA000B2601C54D6E90130984214D21BF8014F9F
:101CB000002C3FF435AE0A2CF0D13368421CB260E0
:101CC00003F800A0D6E901309842E7D33046FFF789
:101CD000C3FCB068E2E73046FFF7BEFC1BF8014FDB
:101CE000002CD8D11CE6002B7FF413AE8CB130222F
:101CF0000299A142BFF40DAEB168481CB0603068D3
:101D00004254D6E90101814204F1FF343BD2002C58
:101D1000EED10024FDE5B1684A1CB26032682D2086
:101D20005054D6E901219142CBF1000BFFF4ECAD08
:101D300030460393FFF790FC039BE5E5B1684A1C2E
:101D4000B26032682B205054D6E901219142FFF451
:101D5000DBADEDE73268591CB16002F803A0D6E9AB
:101D600001239342FFF4E5AE3046FFF775FCB368FC
:101D7000DFE630460393FFF76FFC039B2022002C25
:101D80007FF413AF23E730460393FFF765FC039B13
:101D90003022BCE7F9073FF5B0AD18E79B4631E7C5
:101DA000485F0000CDCCCCCCFFF7FEBB2DE9F04165
:101DB000058A0331043D4E198046B6FBF5F6FFF760
:101DC0000FFCA0B3F6B24FF48073013E0446C58009
:101DD000C0F8008083802BD00346002508E062799C
:101DE000AE4202F1010262713860C0F800801FD07B
:101DF00040461F46FFF7F4FB013503460028EED1AD
:101E00006779791E17D02246013399421268FBD1B7
:101E1000D2F800805FB12668002501E034463668BC
:101E2000214601354046FFF701FCAF42F6D80024B9
:101E30002046BDE8F08120682146FFF7F7FBF6E772
:101E400004300121FFF774BB2DE9F0410121044664
:101E50000430FFF77BFB10F0FF0301D0BDE8F081F9
:101E60006779791E16D02246013399421268FBD158
:101E7000D2F80080002FF1D02668002501E034461A
:101E80003668214601354046FFF7D0FBAF42F6D811
:101E9000BDE8F08120682146BDE8F041FFF7C6BBF0
:101EA0002DE9F8430546C6884079144606FB00F242
:101EB000043A04EB030C1F1D624538BFD41ABE421E
:101EC0008846B7FBF6F106FB117002D801392D6880
:101ED000FCD1371AA74228BF27469CB14FF0000912
:101EE0000430E41B28443A4608EB090101F0B4F839
:101EF000A642B9442D6837464FF0000028BF274658
:101F0000002CEDD1BDE8F8832DE9F8430546C688DD
:101F10004079144606FB00F2043A04EB030C1F1D43
:101F2000624538BFD41ABE428846B7FBF6F106FBBD
:101F3000117002D801392D68FCD1371AA74228BF89
:101F400027469CB14FF0000904302918E41B3A469B
:101F500008EB090001F080F8A642B9442D68374625
:101F60004FF0000028BF2746002CEDD1BDE8F883D4
:101F7000826800239360826813618268536182687B
:101F8000D3608268536082681360704730B585B053
:101F9000047845688DF80040D0E90240064A074BB6
:101FA000039053F82130019552F821108DF8084024
:101FB0006846984705B030BDB00C0020B80C002032
:101FC00030B585B0047845688DF80040D0E902400E
:101FD000064A074B039053F82130019552F821101F
:101FE0008DF808406846984705B030BDB00C002019
:101FF000B80C00202DE9F047DFF8748090F800E07D
:102000004B7F08F80E300D46074616460FCD88B0B8
:102010006C460FC495E80F003D78DFF85890DFF864
:1020200058C018F8055049F82E6084E80F004CF8A5
:102030002E00CDF810E05DB1002E0B4A694607F185
:10204000040008BF324600F00BFC08B0BDE8F08782
:10205000002E064A694607F10C0008BF324600F020
:102060008FF908B0BDE8F0878D1F0000C11F000088
:10207000580D0020B80C0020B00C002010B5174BF4
:102080001A6882B062B10021154A19601B68507944
:1020900000934FF080410123009CC1F8083398B1B0
:1020A000104B1A68BAB100221A601B6801934FF0F6
:1020B000804202210A4B0198C2F808131B680120D4
:1020C00002B0BDE810401847116853718847054BAE
:1020D0001A68002AE7D102B010BD00BF000100401D
:1020E000C00C002004010040014B1B68184700BFD2
:1020F000C80C002038B50C4B984213D100200D4677
:10210000FFF7F6F9094B1C7924B10020FFF7F8F925
:10211000112038BD012220461D601A71FFF7F0F929
:10212000204638BD002038BD00200040C80C0020EB
:10213000034B984203D1034B00221A601A71704777
:1021400000200040C80C0020194BD3F8182102B918
:1021500070470021174AC3F81811D3F81811D37F1C
:1021600082B0FF2B019101990DD0917F99B11F2B66
:102170008ABF11484FF0A04003F01F03012101FA6C
:1021800003F3C0F80C35002353771372D2E9003102
:102190000A4802B018471F2B8ABF07484FF0A040DB
:1021A00003F01F03012101FA03F3C0F80835EAE741
:1021B00000300040D00C002000030050D80C00205C
:1021C00030B56D4AD2F8043399058BB068D5D2F892
:1021D0002431002B64D00023C2F82431D2F82431FA
:1021E00003934FF40171654B0398C2F8081393F8F9
:1021F000291009B9012151605F4902228DF8182088
:10220000D1F88024C1F880249869D9680992002403
:102210000025CDE90710C3E90645D3E9001206A859
:102220009047554AD2F81C31C3B1544B186A5969CA
:1022300088426AD293F8280000F0FF04002864D195
:10224000C2F81C41D2F81C11029102999C68186ACC
:10225000196A205C01311962C2F81C05464AD2F89D
:102260004431DBB10021454BC2F84411D2F844019E
:1022700093F829100090009809B1012111609A6922
:1022800062B1586AD96800229A610122CDE907102B
:102290008DF8182006A8D3E9001290470BB030BD86
:1022A000354AD2F804335B07BBD5D2F80831002B8E
:1022B000B7D0324B996900293CD00021C2F80811EF
:1022C000D2F8081104910499D868596AD2F81825EF
:1022D00042545A6A996901325A625A6A8A42A0D1B2
:1022E000DA69002A2FD0DD685C6A18699A610121D9
:1022F0000022D860DA615A628DF81810CDE90754CF
:10230000D3E9001206A890478BE71B4A0020C2F8C9
:102310001C01D2F81C210192019A00299ED09A68D2
:102320008DF8180008915861079206A8D3E90012A9
:10233000904793E7C2F80811D2F808010590059874
:10234000D2F81825C9E793F8292012B90A4A0121C1
:102350005160094A4FF40171C2F80813596ADA68EA
:1023600008910024012007928DF81800D3E900128B
:102370009C6106A8904754E700200040F80C00201C
:102380002DE9F041DFF8DC8106792C2303FB06837D
:1023900082B093F82A30002B40F09A8005460C4614
:1023A00000686B491746FFF7A5FE002840F08C80B7
:1023B0002368591C19D01F2B4FF001028ABF6549B1
:1023C0004FF0A04103F01F0302FA03F3C1F80835F0
:1023D00023681F2B86BF03F01F035E4A4FF0A04205
:1023E00003F5E073032142F8231063685A1C0BD0F5
:1023F0001F2B86BF03F01F03564A4FF0A04203F580
:10240000E073002142F823102B68A269C3F8242549
:10241000217D637D2A680B43C2F86C35D4E9001234
:102420002B68C3F81425C3F80C15237D012B5BD052
:102430002C2303FB06F308EB03025760226948F8DC
:10244000032077B32A68237F434C0021C2F81C1174
:10245000D2F81C2100922A68009FC2F84411D2F8D9
:1024600044112A6801910199C2F804432A6842F391
:10247000073100294FEA12322EDB01F1604101F5EC
:1024800061415B01DBB281F800332B68334C43F3CD
:1024900007325209C3F30433012101FA03F344F86C
:1024A00022302C23296803FB068604240023012202
:1024B000C6E90633C1F8004586F82A2086F8293097
:1024C000736102B0BDE8F081112002B0BDE8F08177
:1024D000082002B0BDE8F081214902F00F025B0143
:1024E0001144DBB20B76D0E7A368591C0BD01F2B2D
:1024F00086BF03F01F0317494FF0A04103F5E073B7
:10250000002241F82320E3685A1C1AD01F2B8ABFEF
:1025100010494FF0A04103F01F03012202FA03F318
:10252000C1F80835E3681F2B88BF03F01F0303F5CC
:10253000E0738CBF07494FF0A041032241F82320EC
:10254000E3682A68A168C2F80835C2F810156FE779
:10255000C1210000000300508000020000E100E003
:10256000FCEC00E0F80C0020F8B53A4F0479026862
:102570002C2303FB047300215B68C2F8001583B1B0
:102580000368354AC3F808230268344D42F3073321
:102590005B092033C2F30432012101FA02F245F84B
:1025A000232003684FF0FF3CD3F80C65D3F8145593
:1025B000D3F80825D3F81015C3F814C5C3F80CC513
:1025C00003686645C3F808C5C3F810C50CD01F2EB4
:1025D00086BF06F01F06224B4FF0A04306F5E076BB
:1025E0004FF0020C43F826C06E1C0BD01F2D86BF87
:1025F00005F01F051A4B4FF0A04305F5E0750226C4
:1026000043F825604D1C0BD01F2986BF01F01F0128
:10261000134B4FF0A04301F5E071022543F8215020
:10262000531C0BD01F2A86BF02F01F020C4B4FF029
:10263000A04302F5E072022143F822100068FFF780
:1026400077FD2C2303FB0474002384F82A30636095
:10265000F8BD00BFF80C00208402020000E100E099
:10266000000300502DE9F041314E05792C2303FB86
:1026700005630446586984B000284CD118629960FB
:1026800083F828005A612268C2F81C01D2F81C1194
:10269000226802910121029F91602268D3F808C04C
:1026A000C2F81C01D2F81C11019101991F6A196A24
:1026B0001CF8077001311962C2F81C755A6812B112
:1026C00004B0BDE8F0811A6A5F692168BA421BD282
:1026D000864602E093F828200ABBD1F81C21002A84
:1026E000F8D0C1F81CE1D1F81C210392039AD3F869
:1026F00020801A6A1CF8088001321A62C1F81C8511
:102700001A6ABA42E9D32168D1F81C31002BFBD0F8
:102710000123CB6004E0112004B0BDE8F0810F205C
:102720002C2303FB056500236B6104B0BDE8F08139
:10273000F80C002030B5484BD3F8242189B0002A8A
:1027400057D00022C3F82421D3F824210292022278
:102750008DF81020029AD3F88014404AC3F88014F0
:102760000791D3F83C15D368069100240025059302
:10277000C2E906451168536804A89847364BD3F858
:1027800044214AB10021354AC3F84411D3F8440129
:10279000916901900198D9B92F4BD3F82021AAB1A2
:1027A0000021C3F82011D3F820012C4A0090009892
:1027B000506958B1D3F84C05936806908DF8101005
:1027C0005161059304A8D2E90013984709B030BDC0
:1027D000D3F83C35D16806930024002501230591E8
:1027E0008DF81030C2E90645D2E9001304A89847D5
:1027F000D2E7D3F810110029C0D0C3F81021D3F8C4
:1028000010111648039103998469D3F83C15A1422D
:10281000B4D1C469A4B1D3F80052846125F0200575
:10282000C3F80052D0E90343C26101220691C3609C
:102830000168436805948DF8102004A898479DE727
:10284000C26884610123CDE905218DF81030D0E9FB
:10285000001304A8984791E700200040280D0020AD
:102860002DE9F04307797C4E07EBC70306EB8303A2
:1028700085B093F82030002B40F0AD8004460D4623
:10288000006876499046FFF735FC002840F09F80AD
:102890002B68591C4FEAC70919D01F2B4FF00102B2
:1028A0008ABF6F494FF0A04103F01F0302FA03F300
:1028B000C1F808352B681F2B86BF03F01F03684A39
:1028C0004FF0A04203F5E073032142F823106B6838
:1028D0005A1C0BD01F2B86BF03F01F03604A4FF01A
:1028E000A04203F5E073002142F823102368AA698F
:1028F000C3F82425297D6A7D23680A43C3F86C2523
:10290000D5E900312268C2F80C35C2F814152B7DC8
:10291000012B6CD009EB070206EB8203C3F804809D
:102920002B6946F82230B8F1000F3FD021682B7F89
:102930004C4D0022C1F81021D1F8101100912168EE
:10294000DDF800C0C1F82021D1F8201101912168E3
:10295000DDF804C0C1F82421D1F8241102912168C6
:10296000DDF808C0C1F84421D1F844112268039170
:102970000399C2F80453226842F3073100294FEA51
:1029800012322CDB01F1604101F561415B01DBB2E8
:1029900081F800332368344D43F307325209C3F3FF
:1029A0000433012101FA03F345F822304F44226831
:1029B00006EB8706002301240821C2F80015C6E9AA
:1029C000063386F82040736105B0BDE8F08311201E
:1029D00005B0BDE8F083082005B0BDE8F0832349C9
:1029E00002F00F025B011144DBB20B76D2E7AB6859
:1029F000591C0BD01F2B86BF03F01F0318494FF043
:102A0000A04103F5E073002241F82320EB685A1C33
:102A10001AD01F2B8ABF12494FF0A04103F01F03A9
:102A2000012202FA03F3C1F80835EB681F2B88BFB7
:102A300003F01F0303F5E0738CBF09494FF0A04179
:102A4000032241F82320EB682268A968C2F8083500
:102A5000C2F810155EE700BF280D002035270000E2
:102A6000000300501003020000E100E0FCEC00E075
:102A7000F8B506793B4C026806EBC60304EB83030A
:102A800000215B68C2F80015F70083B10368364A7D
:102A9000C3F808230268354D42F307335B0920333E
:102AA000C2F30432012101FA02F245F8232003683F
:102AB0004FF0FF3ED3F80CC5D3F81455D3F80825D2
:102AC000D3F81015C3F80CE5C3F814E50368F44512
:102AD000C3F808E5C3F810E50DD0BCF11F0F86BFA1
:102AE0000CF01F0C224B4FF0A0430CF5E07C4FF094
:102AF000020E43F82CE06B1C0CD01F2D86BF05F096
:102B00001F051B4B4FF0A04305F5E0754FF0020C7D
:102B100043F825C04D1C0BD01F2986BF01F01F01B3
:102B2000134B4FF0A04301F5E071022543F821500B
:102B3000531C0BD01F2A86BF02F01F020C4B4FF014
:102B4000A04302F5E072022143F822103E4404EB58
:102B500086040068FFF7ECFA002384F820306360F5
:102B6000F8BD00BF280D00201003020000E100E0C6
:102B700000030050F0B401F06044B4F1005F82B093
:102B80002CD10579244E05EBC50406EB84040346DD
:102B90006069EF00002839D16261A1601A68C2F84B
:102BA0002001D2F820C11A68CDF804C0DDF804C0B5
:102BB000C2F85801D2F8582100921A68DDF800C016
:102BC000D4F814C0C2F84415C2F848C51A680121E7
:102BD0009160626832B102B0F0BC7047102002B060
:102BE000F0BC70471B6800E0A0B9D3F82021D3F8EF
:102BF0005801002AF8D0002818BF0F207B1906EBD7
:102C0000830300225A6102B0F0BC7047112002B069
:102C1000F0BC70470F20F1E7280D00200E4B10B4D8
:102C2000002201210324C3F80425C3F80845596094
:102C3000C3F84025C3F84021C3F84421C3F8482114
:102C4000C3F84C21D960C3F80022C3F81005D9603D
:102C50005DF8044B704700BF008000400649074AFA
:102C6000074B9B1A03DD043BC858D050FBDCFDF733
:102C700081FDFDF7E9FA0000F86300000000002084
:102C800090030020FEE7FEE7FEE7FEE7FEE7FEE733
:102C9000FEE7FEE7FEE7FEE781F0004102E000BF4D
:102CA00083F0004330B54FEA41044FEA430594EA0C
:102CB000050F08BF90EA020F1FBF54EA000C55EA47
:102CC000020C7FEA645C7FEA655C00F0E2804FEA18
:102CD0005454D4EB5555B8BF6D420CDD2C4480EAFA
:102CE000020281EA030382EA000083EA010180EA2A
:102CF000020281EA0303362D88BF30BD11F0004F78
:102D00004FEA01314FF4801C4CEA113102D04042AD
:102D100061EB410113F0004F4FEA03334CEA1333E8
:102D200002D0524263EB430394EA050F00F0A78000
:102D3000A4F10104D5F1200E0DDB02FA0EFC22FAFB
:102D400005F2801841F1000103FA0EF2801843FAEF
:102D500005F359410EE0A5F120050EF1200E012AE0
:102D600003FA0EFC28BF4CF0020C43FA05F3C0181E
:102D700051EBE37101F0004507D54FF0000EDCF197
:102D8000000C7EEB00006EEB0101B1F5801F1BD340
:102D9000B1F5001F0CD349085FEA30004FEA3C0C44
:102DA00004F101044FEA445212F5800F80F09A803A
:102DB000BCF1004F08BF5FEA500C50F1000041EB3E
:102DC000045141EA050130BD5FEA4C0C404141EB42
:102DD0000101013C28BFB1F5801FE9D291F0000F3D
:102DE00004BF01460020B1FA81F308BF2033A3F1EC
:102DF0000B03B3F120020CDA0C3208DD02F1140CE3
:102E0000C2F10C0201FA0CF021FA02F10CE002F11D
:102E10001402D8BFC2F1200C01FA02F120FA0CFC16
:102E2000DCBF41EA0C019040E41AA2BF01EB04515F
:102E3000294330BD6FEA04041F3C1CDA0C340EDC5D
:102E400004F11404C4F1200220FA04F001FA02F3A0
:102E500040EA030021FA04F345EA030130BDC4F15E
:102E60000C04C4F1200220FA02F001FA04F340EA53
:102E70000300294630BD21FA04F0294630BD94F004
:102E8000000F83F4801306BF81F480110134013DEB
:102E90004EE77FEA645C18BF7FEA655C29D094EA5C
:102EA000050F08BF90EA020F05D054EA000C04BFDA
:102EB0001946104630BD91EA030F1EBF00210020C5
:102EC00030BD5FEA545C05D14000494128BF41F064
:102ED000004130BD14F580043CBF01F5801130BDC8
:102EE00001F0004545F0FE4141F470014FF0000053
:102EF00030BD7FEA645C1ABF194610467FEA655C04
:102F00001CBF0B46024650EA013406BF52EA0335A5
:102F100091EA030F41F4002130BD00BF90F0000F93
:102F200004BF0021704730B54FF4806404F13204CF
:102F30004FF000054FF0000150E700BF90F0000F88
:102F400004BF0021704730B54FF4806404F13204AF
:102F500010F0004548BF40424FF000013EE700BF7F
:102F600042004FEAE2014FEA31014FEA02701FBF0F
:102F700012F07F4393F07F4F81F06051704732F041
:102F80007F4208BF704793F07F4F04BF41F4002198
:102F9000704730B54FF4607401F0004521F00041F6
:102FA0001CE700BF50EA010208BF704730B54FF080
:102FB00000050AE050EA010208BF704730B511F081
:102FC000004502D5404261EB41014FF4806404F1B9
:102FD00032045FEA915C3FF4D8AE4FF003025FEA3F
:102FE000DC0C18BF03325FEADC0C18BF033202EBC3
:102FF000DC02C2F1200300FA03FC20FA02F001FA1D
:1030000003FE40EA0E0021FA02F11444BDE600BFBF
:1030100030B5002285B00C460546002351EC100B5C
:103020008DED020B02F01EFE9DED020B224618B143
:103030002D2302F8013B013D002306480093294659
:103040006723006800F0A0F8002814BF2046002085
:1030500005B030BD000000200A44914200F1FF336A
:1030600000D1704710B511F8014B03F8014F9142A0
:10307000F9D110BD034611F8012B03F8012B002AEA
:10308000F9D17047034613F8012B002AFBD1181A17
:1030900001387047F0B587B043EC102B0C9C9DF8BD
:1030A00034600E9D04AB019303AB0093621C05AB2F
:1030B0000F46022100F0E8FD059A42F20F739A4292
:1030C00005D101463846FFF7D5FF07B0F0BD3B46B6
:1030D000017803F8011B002CC8BF01252E2110F830
:1030E000017F0FB1002C37DC672E46D0472E46D02B
:1030F0002E213020002C38DC511E0029B8BFC2F12F
:10310000010218460591BCBF2D21059200F8026B03
:10311000B8BF59700599A4BF2B225A7063290BDDE3
:10312000642291FBF2F202F13004D81C9C706FF023
:10313000630303FB02120592059A0A2392FBF3F341
:1031400003F1300101706FF0090101FB03233033FB
:10315000437000238370B8E70DB103F8011B0578B5
:1031600003F8015B013C0025B9E70DB103F8011B31
:1031700003F8010B013C0025BCE76526BCE74526AA
:10318000BAE70000000000002DE9F04755EC104BB5
:1031900088B08146884616469A4610EE100A0022EC
:1031A00000232946109F02F05DFD10B105F1004398
:1031B0001D46002200232046294602F049FD38B171
:1031C0003023337000237370304608B0BDE8F087B9
:1031D0004BA3D3E900232046294602F04DFD58B108
:1031E00008F1FF310091CDE901A722462B46314677
:1031F0004846FFF74FFFE7E7404600F003FC224652
:1032000051EC100B2B4602F037FD0028E8D107AB3C
:10321000019306AB0093424605AB45EC104B0221EF
:10322000484600F031FD059A42F20F739A420ED0E3
:103230003346B044044610F8015B0599A8EB03023D
:103240000DB1002908DC00204FF0300C0DE00146E4
:103250003046FFF70FFFB7E7013903F8015B05912F
:10326000E8E703F801CB013A012000290D462ADCEA
:1032700000B105910FB9217811B3B34204BF3021D9
:1032800003F8011B2E211970059918460025A1EBA2
:10329000030C4FF0300E1CEB000F1CD40029C1F1C1
:1032A0000000C8BF002000F1010C6344014405B1D7
:1032B0000591611E11F8010F08B1002A0FDCDFB97A
:1032C00000221A7080E7002A01F1FF31C9DC0028D2
:1032D000D0D00595CEE700F801EF0125DBE703F834
:1032E000010B013AE6E701F8015B601A0028FADCFD
:1032F000002AA8BF9B18E3E719469C183025F4E77D
:103300002D431CEBE2361A3F70B5466A04460D4663
:1033100076B9102001F0B6FA0246606220B9184B67
:103320001848662100F006FCC0E901660660C66028
:10333000666AF36883B1636ADB6853F82500B8B93D
:10334000012101FA05F6721D9200204600F078FB7B
:1033500060B1C0E901560EE021220421204600F0B0
:103360006FFB636AF060DB68002BE4D1002070BD66
:10337000026843F825200023C0E90333F7E700BFC4
:10338000876000009E60000070B5466A05460C46E6
:1033900076B9102001F076FA0246686220B9094B2E
:1033A00009488A2100F0C6FBC0E901660660C660D4
:1033B0003CB16B6A6268DB6853F82210216043F805
:1033C000224070BD876000009E6000002DE9F04142
:1033D0000E69074698460C4601F114000023056863
:1033E000A9B202FB01814FEA114C2D0C02FB05C56D
:1033F00089B2013301EB05419E4240F8041B4FEABC
:103400001548ECDCB8F1000F22D0A368B34219DCF8
:10341000616838460131FFF777FF054628B9024653
:103420000D4B0E48B52100F085FB2269023204F1F4
:103430000C0192000C30FFF70FFE21463846FFF7D3
:10344000A3FF2C4604EB86030136C3F814802661E3
:103450002046BDE8F08100BF1B6100009E600000B7
:10346000030C1B04D3B90004102310F07F4F04BFDA
:103470000002083310F0704F04BF0001043310F055
:10348000404F04BF80000233002805DB10F0804F5E
:1034900003F1010308BF2023184670470023E4E727
:1034A000036813F0070201460BD0DA0724D498070B
:1034B00049BF5B089B0801200B605CBF0B600220CA
:1034C000704798B2B0B91B0C102013F0FF0F04BF67
:1034D0001B0A08301A0704BF1B0904309A0704BFEF
:1034E0009B080230DA0703D45B0800F1010005D025
:1034F0000B6070471046E8E70020704720207047B7
:1035000010B50C460121FFF7FFFE024628B9054B16
:1035100005484FF4A07100F00DFB012344610361E5
:1035200010BD00BF1B6100009E6000002DE9F04F40
:1035300014460A6923699A42B8BF0B460D46BCBFC0
:1035400025461C46D5F810A0D4F81090AB686968E1
:103550000AEB0907BB4285B0B8BF0131FFF7D4FEC3
:1035600030B90246424B434840F25D1100F0E2FAA6
:1035700000F1140606EB87083346002243451ED3AC
:1035800005F1140C04F114030CEB8A0C03EB890213
:103590000292ACEB0502153A22F00302043205F167
:1035A00015018C4538BF04220192029A03939A4276
:1035B00008D8002F55DC076105B0BDE8F08F43F84F
:1035C000042BDBE7B3F800A0BAF1000F20D005F11F
:1035D000140EB14600225EF8044BD9F800B0A1B237
:1035E0001FFA8BFB0AFB01B11144D9F80020240C0F
:1035F000120C0AFB042404EB114489B241EA044191
:10360000F44549F8041B4FEA1442E4D8019972507A
:10361000039AB2F802900433B9F1000F1FD0346856
:1036200005F11401B6464FF0000A0A88BEF802B050
:1036300009FB02B29244A4B244EA0A444EF8044B95
:1036400051F8044BBEF80020240C09FB042404EBC1
:103650001A448C454FEA144AE7D8019AB45004360C
:10366000A3E758F8043D002BA5D1013FA1E700BF17
:103670001B6100009E6000002DE9F843154612F022
:10368000030206460F4607D0254C013A002354F8A2
:103690002220FFF79BFE0746AD103DD0746A7CB92F
:1036A000102001F0EFF80246706228B91D4B1E4849
:1036B0004FF4D77100F03EFAC0E901440460C460E1
:1036C000D6F82480D8F808404CB940F27121304631
:1036D000FFF716FF0023C8F80800044603604FF008
:1036E0000009EB070AD5394622463046FFF71EFF90
:1036F000394680463046FFF747FE47466D100BD0EF
:10370000206838B9224621463046FFF70FFF206077
:10371000C0F800900446E4E73846BDE8F88300BFEF
:1037200020620000876000009E6000002DE9F047E5
:103730000C464968236903EB6218A3680746914663
:103740004FEA621A08F10106B3420BDB3846FFF775
:10375000DBFD054648B90246284B294840F2D911FD
:1037600000F0E8F901315B00EEE7002300F11401FD
:1037700000F110021846534533DB20692AEAEA7A41
:1037800004F1140319F01F0901EB8A0103EB800C0B
:103790002BD0C9F1200E8A460022186800FA09F0E1
:1037A00002434AF8042B53F8042B9C4522FA0EF2EC
:1037B000F3D8ACEB0403153B23F00303043304F10B
:1037C0001500844538BF0423CA500AB108F1020627
:1037D000013E38462E612146FFF7D6FD2846BDE85A
:1037E000F08742F8040F0133C5E7043953F8042B7E
:1037F00041F8042F9C45F9D8EAE700BF1B6100009F
:103800009E60000030B502690C69121B0ED100F1F8
:103810001403143103EB840001EB840150F8045DC0
:1038200051F8044DA54203D005D30122104630BD06
:103830008342F3D3FAE74FF0FF32F7E72DE9F84F71
:103840000C460646114620461746FFF7DBFF051ECD
:1038500010D129463046FFF757FD30B9394B0246A3
:1038600040F23221384800F065F90123C0E90435FF
:10387000BDE8F88FA4BF3B46274630467968A6BF0F
:103880001C4600250125FFF73FFD20B92D4B0246C0
:103890004FF41071E6E73E69C560256907F1140130
:1038A00004F1140900F1140E07F1100201EB860C6B
:1038B00009EB8505F246002759F8043B52F804BF8E
:1038C0001FFA83F817FA8BF71B0CA7EB0808C3EB5A
:1038D0001B4303EB28431FFA88F81F144D4548EAA1
:1038E00003434AF8043BE7D82B1B153B23F00303A3
:1038F00004331534A54238BF0423194473449E464B
:103900000D4665450ED30CF10302521A22F0030254
:1039100003398C4538BF00221A4452F8043D7BB16C
:103920000661A5E755F8048B17FA88F4221402EB18
:103930001842A4B244EA02444EF8044B1714E0E7DC
:10394000013EEAE71B6100009E6000002DE9F7439D
:103950008946012157EC106B9046FFF7D5FC0446D1
:1039600030B90246254B264840F20A3100F0E2F811
:10397000C7F30A55C7F3130335BB002E019328D0B4
:1039800068460096FFF78CFD009900B3019AC0F1DC
:10399000200302FA03F30B43C24063610192019BCF
:1039A000A361002B14BF022201222261D5B1A5F22E
:1039B00033450544C9F80050C0F13500C8F800008F
:1039C000204603B0BDE8F08343F48013D5E761617E
:1039D000E5E701A8FFF764FD019B63610122226115
:1039E0002030E3E704EB8203A0F23240C9F8000084
:1039F0001869FFF735FDC0EB4210DFE71B610000DF
:103A00009E6000001728D0B5044607DC094800EB8B
:103A1000C404D4E9000141EC100BD0BD0649074FA6
:103A20000020002632463B4601F0AAFE013CF9D1B7
:103A3000F1E700BF586100000000F03F00002440A3
:103A400013B54A431146019200F00AF8044618B132
:103A5000019A0021FCF76AFC204602B010BD00006C
:103A6000F8B5CD1C25F0030508350C2D38BF0C2505
:103A7000002D064601DBA94203D90C233360002048
:103A8000F8BD00F007FF21490A6814469CB9204F91
:103A90003B6823B92146304600F03CF8386029469F
:103AA000304600F037F8431C23D10C2333603046F6
:103AB00000F0F6FEE3E723685B1B17D40B2B03D95A
:103AC00023601C44256004E06368A2420CBF0B60C5
:103AD0005360304600F0E4FE04F10B00231D20F09B
:103AE0000700C21ACCD01B1AA350C9E7224664684B
:103AF000CCE7C41C24F00304A042E3D0211A3046D2
:103B000000F008F80130DDD1CFE700BF4C0D0020F8
:103B1000500D002038B5064D0023044608462B60A2
:103B200002F028F9431C02D12B6803B1236038BD91
:103B30005C0D00201FB514461A46094B1B6805464C
:103B4000D8684CB1074B0091CDE9013406492B46AA
:103B500000F086FE01F0A8FA044B1C46F3E700BF14
:103B6000000000202C620000396200006762000043
:103B70002DE9F74F03690C69A3420746C0F2818023
:103B8000013C01F1140800F1140505EB84030193D5
:103B900058F8243055F8242001339A424FEA840B18
:103BA00008EB8409B2FBF3F631D34FF0000E404628
:103BB000AC46F24650F8042B93B206FB03E34FEAFF
:103BC000134E9BB2AAEB0303120CDCF800A006FB19
:103BD00002E213FA8AF34FEA124E1FFA82FADCF875
:103BE0000020CAEB124202EB23429BB243EA02439B
:103BF00081454CF8043B4FEA224ADBD255F80B30A2
:103C00002BB9019B043B9D421A462ED33C6138469A
:103C1000FFF7F8FD002824DB013628464FF0000CA2
:103C200058F8042BD0F800E093B2ACEB0303120C6D
:103C300013FA8EF3C2EB1E4202EB23429BB243EA1D
:103C40000243C14540F8043B4FEA224CE8D255F804
:103C5000242005EB840322B9043B9D421A460AD373
:103C60003C61304603B0BDE8F08F1268043B002A87
:103C7000CCD1013CC7E71268043B002AF0D1013CDB
:103C8000EBE70020EEE700002DE9F04F2DED028B71
:103C900057EC106B95B0456ADDF880800591CDE951
:103CA0000267044609920F9375B9102000F0EAFDEF
:103CB0000246606220B9B24BEA21B248FFF73AFFF0
:103CC000C0E901550560C560636A196851B15A6859
:103CD0004A60012393408B602046FFF755FB636ADF
:103CE00000221A603B1EB9BF23F000430393002358
:103CF000C8F80030DDF80C90A34BBCBF0122C8F817
:103D0000002033EA09031BD10F9A42F20F731360AC
:103D1000C9F31303334300F07A85219B63B99B4BAE
:103D200024E09B4B00930833219A1360009815B050
:103D3000BDEC028BBDE8F08F944B00930333F3E7A7
:103D40009DED027B002251EC170B00238DED0A7BC9
:103D500001F07EFF804658B10F9A01231360219B2A
:103D6000002B00F051858B481860431E0093DDE75F
:103D70009DED0A0B12AA13A92046FFF7E7FDC9F330
:103D80000A558346002D7CD00B9BCDF84080C3F3B1
:103D90001303DDE90A6743F07F5747F44017A5F2A4
:103DA000FF357D4B002230463946FEF779FF6EA382
:103DB000D3E9002301F0E4FC6DA3D3E90023FEF76F
:103DC00071FF064628460F46FFF7B8F86AA3D3E905
:103DD000002301F0D5FC02460B4630463946FEF77B
:103DE00061FF06460F4601F065FF00228246002370
:103DF0003046394601F036FF48B15046FFF79EF88D
:103E000032463B4601F024FF08B90AF1FF3ABAF105
:103E1000160F54D8614B03EBCA03D3E90023DDE945
:103E20000A0101F01FFF00284BD00AF1FF3A0023DE
:103E30000E93129B5D1B6B1E049343BF0023C5F1C1
:103E4000010804934FF00008BAF1000F3BDB049B1C
:103E5000CDF834A05344049300230693059B092B0B
:103E600069D8052BC4BF043B0593059BA3F102034E
:103E7000CCBF00250125032B69D8DFE803F02C4EC9
:103E80004C5ADDE912531D4405F23243202BC1BFC9
:103E9000C3F1400305F2124009FA03F326FA00F0D9
:103EA000DABFC3F1200306FA03F01843FFF736F830
:103EB00001230646A1F1F877013D109371E7012334
:103EC000B6E70E90B5E7CAF1000306930023A8EB0E
:103ED0000A080D93C2E700230893099B002B39DCE5
:103EE0004FF00109CDF804904B46CDF82490606A5C
:103EF00000224260042202F114069E4241682FD93A
:103F00002046FFF701FA009000284BD1244B0246CF
:103F10004FF4D571D1E60123DEE700230893099B16
:103F20000AEB030909F10103012B0193B8BF012337
:103F3000DDE70123F2E701250023059308954FF003
:103F4000FF390022CDF8049012230992CFE7012314
:103F50000893F4E7DDF82490CDF804904B46C6E7CB
:103F6000013141605200C6E761436F63A787D23FCA
:103F7000B3C8608B288AC63FFB799F501344D33F58
:103F800087600000776200000000F07F716200002F
:103F900068620000766200000000F83F586100008F
:103FA0001B610000636A009A1A60019B0E2B00F2ED
:103FB000AD80002D00F0AA80BAF1000F36DDC34AB3
:103FC0000AF00F0302EBC30393ED007B1AF4807F2A
:103FD0004FEA2A17B0EE478AF0EE678A16D0BC4B3C
:103FE000DDE90A01D3E9082301F0F4FCCDE902017F
:103FF00007F00F070325B64E57B9DDE9020153EC70
:10400000182B01F0E7FCCDE9020129E00225F2E7D7
:10401000F90708D551EC180BD6E9002301F0B0FBE5
:1040200041EC180B01357F100836E5E700F0A6805B
:10403000CAF10006A54BA64F06F00F0203EBC20320
:10404000D3E90023DDE90A0101F09AFBCDE9020181
:10405000361100230225002E40F08580002BD2D19E
:104060000E9B002B00F08C80DDE90267994B00224B
:104070003046394601F0F6FD002800F08180019BB2
:10408000002B7DD0B9F1000F3CDD0AF1FF3307931F
:104090000022914B3046394601F072FBCDE9020116
:1040A0000135CDF83090DDE902672846FEF746FF7E
:1040B00032463B4601F064FB884B0022FEF7F2FDDE
:1040C000A1F15073CDE9020103930C9B002B5CD14D
:1040D000834B002230463946FEF7E2FDDDE902233C
:1040E00006460F4601F0DCFD002840F09682DDE92F
:1040F0000221304601F10043394601F0B3FD0028AA
:1041000040F08882DDE90A23CDE90223139B002BCE
:10411000C0F25881BAF10E0F00F354816B4B03EBE0
:10412000CA03D3E90089099B002B80F2E380019B3D
:10413000002B00F3DF8040F06D82694B0022404687
:10414000494601F01DFBDDE9022301F09FFD019EC0
:104150003746002840F04382009D312305F8013B9B
:104160000AF1010A3FE2F20705D5D7E9002301F081
:1041700007FB01350123761008376CE702256FE74E
:10418000019BCDF81CA00C938DE700990C980C9A1C
:104190004E4B9DED027B014402910899B0EE478A97
:1041A000F0EE678A03EBC20353E90223002945D0EE
:1041B0004C49002001F00EFC53EC182BFEF770FD6B
:1041C000009D41EC180B3946304601F073FD0C9010
:1041D000FEF7B4FE02460B4630463946FEF760FD58
:1041E0000C9B303305F8013B53EC182B06460F4669
:1041F00001F038FD002865D132463B4635490020A4
:10420000FEF74EFD53EC182B01F02CFD002840F07A
:10421000B980029B9D423FF475AF2F4B51EC180BB8
:10422000002201F0ADFA2C4B41EC180B0022304675
:10423000394601F0A5FA06460F46C4E751EC170BC4
:1042400001F09EFA029B009D0C9341EC180B39463D
:10425000304601F02FFD1190FEF770FE02460B462E
:1042600030463946FEF71CFD119B303305F8013B03
:10427000029B9D4206460F464FF0000234D1194B77
:1042800051EC180BFEF70EFD02460B463046394640
:1042900001F006FD002875D153EC182B11490020C0
:1042A000FEF7FEFC02460B463046394601F0DAFCCA
:1042B00000283FF427AF0C9D6B1E0C9315F8013CB2
:1042C000302BF8D0DDF81CA04AE000BF5861000098
:1042D000306100000000F03F0000244000001C405E
:1042E000000014400000E03FAF4B01F049FA0646E1
:1042F0000F46ACE7DDE90267009D42464B4630467B
:10430000394601F067FB01F0D5FC0290FEF716FE7E
:1043100042464B4601F034FA02460B4630463946D7
:10432000FEF7BEFC029E019F303605F8016B009E31
:10433000AE1BB74202460B4637D1FEF7B3FC4246EE
:104340004B4606460F4601F0ABFCC8B942464B4609
:104350003046394601F07CFC10B1029BD9070FD4DE
:1043600020465946FFF710F800232B700F9B0AF1E7
:1043700001001860219B002B3FF4D8AC1D60D5E4F0
:10438000CDF81CA02B461D4613F8012D392A08D163
:10439000009A9A42F7D1079A009901320792302287
:1043A0000A701A7801321A708CE77F4B002201F0F4
:1043B000E7F90022002306460F4601F049FC0028D9
:1043C0009BD0CDE7089A002A00F0C480059A012A04
:1043D00000F3A880109A002A00F0A08003F2334373
:1043E000069E4546049A01211A44204698440492A8
:1043F000FFF786F80746002D0BDD049B002B08DD38
:10440000AB42049AA8BF2B46A8EB0308ED1AD31AB7
:104410000493069BFBB1089B002B00F09F80002EAD
:1044200011DD394632462046FFF726F95A46014645
:1044300007462046FFF77AF8594607902046FEF7D0
:10444000A3FF079B9B46069B9A1B04D05946204618
:10445000FFF712F9834601212046FFF751F80D9B23
:10446000002B06467CDD1A4601462046FFF704F97C
:10447000059B012B064676DD00230693336906EB88
:1044800083031869FEF7ECFFC0F12000049B184479
:1044900010F01F0000F08680C0F12003042B7FDDA8
:1044A000C0F11C00049B0344804405440493B8F10C
:1044B000000F05DD594642462046FFF737F983468F
:1044C000049B002B05DD31461A462046FFF72EF9E6
:1044D00006460E9B002B69D031465846FFF792F9ED
:1044E000002863DA002359460A222046FEF76EFFB1
:1044F000089B0AF1FF3A8346002B00F08F81394672
:1045000000230A222046FEF761FFB9F1000F07469B
:1045100000F38E80059B022B50DC89E0129BC3F1D7
:1045200036035DE7019B5E1E069BB342BFBF069B41
:104530000696F21A0D9BB6BF9B189E1B0D93019B0E
:10454000B8BF0026002BB5BFA8EB0305019B0023D5
:10455000454647E7069E089F45464CE7069A75E79D
:10456000059B012B18DC029BB3B9039BC3F3130318
:10457000A3B9039B23F000431B0D1B052BB1049B28
:104580000133049308F10108012306930D9B002BCE
:104590007FF474AF012079E70023F6E7029BF4E78C
:1045A00085D018461C307DE700002440019B002B7D
:1045B00038DC059B022B35DDDDF80490B9F1000FE6
:1045C0000DD131464B4605222046FEF7FFFE01463F
:1045D00006465846FFF716F900283FF7BDAD099B80
:1045E000009D6FEA030A4FF0000831462046FEF7AF
:1045F000CBFE002F3FF4B4AEB8F1000F05D0B845A4
:1046000003D041462046FEF7BFFE39462046FEF75E
:10461000BBFEA5E600263746E1E70C9EDDF81CA0B0
:10462000374699E5089BDDF80490002B00F0FD80EB
:10463000002D05DD39462A462046FFF777F8074664
:10464000069B002B5CD079682046FEF75DFE054690
:1046500028B9804B024640F2EA21FFF72EBB3A69A7
:104660000232920007F10C010C30FEF7F5FC01223A
:1046700029462046FFF75AF8009B01330193009B1F
:104680004B440793029B03F00103B8460693074689
:10469000019B3146013B58460293FFF769FA0346F6
:1046A00030330490414658460893FFF7ABF83A463A
:1046B000814631462046FFF7C1F8C268089B05468F
:1046C00002BB01465846FFF79DF8089B0246294663
:1046D0002046CDE90832FEF757FE059B099A019D59
:1046E00043EA0201069B0B43089B0DD1392B29D0CD
:1046F000B9F1000F01DD049B3133029A137074E7A6
:104700003846B9E70122E2E7B9F1000F06DB059967
:1047100041EA0909069959EA010120D1002AECDD94
:104720005946012220460193FFF700F8314683469F
:10473000FFF768F80028019B02DCDED1DA07DCD540
:10474000392BD8D1029A392313702B461D46013BD1
:1047500015F8012C392A50D001321A7045E7002A89
:1047600003DD392BEED00133C7E7019A079902F830
:10477000013C8A422AD0594600230A222046FEF7ED
:1047800025FEB84583464FF000034FF00A0241462C
:10479000204607D1FEF71AFE80460746019B0133EB
:1047A000019375E7FEF712FE3946804600230A2280
:1047B0002046FEF70BFE0746F0E7B9F1000F009A1E
:1047C000CCBF4D46012515444FF000085946012243
:1047D00020460193FEF7AAFF31468346FFF712F801
:1047E0000028B2DC02D1019BDB07AED42B461D466C
:1047F00013F8012D302AFAD0F7E6009A9A42A5D193
:104800000AF1010A312379E7134BFFF7AFBA219B75
:10481000002B7FF486AA114BFFF7A8BAB9F1000F5D
:1048200003DC059B022B3FF7C9AE009D314658467D
:10483000FFF79EF900F1300305F8013B009AAA1A30
:104840009145BADD594600230A222046FEF7BEFDF7
:104850008346EBE71B6100007562000068620000A0
:104860000EB403B5014603AB054853F8042B0068AA
:10487000019300F095F802B05DF804EB03B07047C7
:1048800000000020024B01461868FFF7E9B800BF9E
:1048900000000020014800F0C7BD00BF640D0020EB
:1048A000014800F0C2BD00BF640D002037B50029EB
:1048B00048D051F8043C0190002BA1F10404B8BF8A
:1048C000E418FFF7E7FF204A01981368154633B94B
:1048D0006360146003B0BDE83040FFF7E1BFA3425E
:1048E0000BD921686218934204BF1A685B68636041
:1048F00004BF521822602C60ECE71A465B680BB1CB
:10490000A342FAD911685518A5420BD12468214455
:104910005418A3421160DDD11C685B6853602144C8
:104920001160D7E702D90C230360D3E7256861192A
:104930008B4204BF19685B68636004BF491921603A
:104940005460C7E703B030BD4C0D00209368013BB5
:10495000002B10B4936008DA9469A34201DB0A29A2
:1049600003D15DF8044B00F0DFBA1368581C1060E7
:10497000197008465DF8044B7047F8B506460F46B7
:104980001446D518AC4201D1002007E014F8011BF1
:104990003A463046FFF7DAFF431CF3D1F8BD00007A
:1049A0002DE9F04F0D469DB014469846064618B1C5
:1049B00083690BB900F09AFC894B9D421BD1756845
:1049C0006B6ED90705D4AB899A0502D4A86D00F0A7
:1049D0002BFDAB891B0701D52B69EBB92946304666
:1049E00000F0F4FAC0B16B6EDC070ED54FF0FF306B
:1049F0001DB0BDE8F08F7B4B9D4201D1B568DFE76C
:104A0000794B9D4208BFF568DAE7AB899805EDD48C
:104A1000A86D00F00AFDE9E70023099320238DF833
:104A20002930CDF80C803023DFF8C0818DF82A3092
:104A30004FF0010923469A4613F8012B0AB1252AA3
:104A4000F9D1BAEB040B0BD05B462246294630461F
:104A5000FFF793FF013000F0AA80099A5A440992A7
:104A60009AF80030002B00F0A28000234FF0FF32B4
:104A7000CDE905230AF1010A049307938DF8533019
:104A80001A935446052214F8011B584800F038FDCB
:104A9000049AD8B9D10644BF20238DF853301307A8
:104AA00044BF2B238DF853309AF800302A2B15D0B1
:104AB000079A544600204FF00A0C214611F8013B9A
:104AC000303B092B4ED9B0B1079214E0A0EB08039C
:104AD00009FA03F313430493A246D2E7039B191D7B
:104AE0001B680391002BBBBF5B4242F0020207939D
:104AF0000793B8BF049223782E2B0CD163782A2B0E
:104B000035D1039B1A1D1B680392002BB8BF4FF0D1
:104B1000FF3302340593DFF8E4A0217803225046E6
:104B200000F0EEFC40B14023A0EB0A0003FA00F0D5
:104B3000049B03430134049314F8011B2C488DF8A3
:104B40002810062200F0DCFC00283FD0294B1BBBBC
:104B5000039B073323F0070308330393099B3B446C
:104B6000099367E70CFB02320C460120A5E70023FE
:104B70000134059319464FF00A0C204610F8012B1A
:104B8000303A092A03D9002BC5D00591C3E70CFBA5
:104B9000012104460123F0E703AB00932A46164B9C
:104BA00004A93046AFF300800746781CD6D16B6E5F
:104BB000D90705D4AB899A0502D4A86D00F035FC5D
:104BC000AB895B063FF512AF099811E703AB009381
:104BD0002A46094B04A9304600F080F8E4E700BFFC
:104BE000486300006863000028630000F36200006F
:104BF000FD620000000000007B490000F962000037
:104C00002DE9F047164699468A680B69DDF8208041
:104C10009342B8BF1346336091F8432007460C46D1
:104C20000AB1013333602368990642BF3368023307
:104C30003360256815F0060506D104F1190AE3680A
:104C400032689B1AAB4226DC94F84320131E22687C
:104C500018BF012392062BD404F14302494638467B
:104C6000C04701301ED02368E568326803F00603B0
:104C7000042B08BFAD1AA36822690CBF25EAE575AD
:104C800000259342C4BF9B1AED1800261A34B54282
:104C90001AD1002008E00123524649463846C04751
:104CA000013003D14FF0FF30BDE8F0870135C6E792
:104CB000E1185A1C302081F84300224494F8451032
:104CC00082F843100233C7E701232246494638469B
:104CD000C0470130E6D00136D9E700002DE9FF4793
:104CE0000C469146277E0C99782F80469A4604F10F
:104CF000430207D8622F0AD8002F00F0D880582F1F
:104D000000F0A38004F1420684F842703AE0A7F173
:104D10006303152BF6D801A050F823F0754D000061
:104D2000894D0000054D0000054D0000054D0000B7
:104D3000054D0000894D0000054D0000054D0000A7
:104D4000054D0000054D0000954E0000B94D0000D6
:104D5000774E0000054D0000054D0000B74E0000E5
:104D6000054D0000B94D0000054D0000054D000047
:104D70007F4E00000B681A1D1B680A6004F1420692
:104D800084F842300123A3E0256808682E0600F16C
:104D900004030AD505680B60002D03DA2D236D424C
:104DA00084F843305E480A2319E015F0400F056887
:104DB0000B6018BF2DB2EFE70B682568181D08605F
:104DC000280601D51D6802E06906FBD51D885448F8
:104DD0006F2F0CBF08230A23002184F84310666854
:104DE000A660002EA2BF216821F0040121600DB948
:104DF000002E4DD01646B5FBF3F103FB1157C75DEE
:104E000006F8017D2F46BB420D46F4D9082B0BD185
:104E10002368DF0708D5236961689942DEBF302324
:104E200006F8013C06F1FF36921B2261CDF800A086
:104E30004B4603AA21464046FFF7E2FE01304CD123
:104E40004FF0FF3004B0BDE8F087354884F8457076
:104E500023680E681F0656F8045B0E6014D5D90748
:104E600044BF43F0200323601DB9236823F02003CF
:104E700023601023B0E7236843F0200323607823E6
:104E8000284884F84530E3E75E0648BFADB2E6E760
:104E90001646BBE70B68266860691D1D0D60350668
:104EA0001B6801D5186002E07106FBD5188000234D
:104EB00023611646BAE70B681A1D0A601E6862680D
:104EC0000021304600F01CFB08B1801B6060636865
:104ED0002361002384F84330A8E72369324649461A
:104EE0004046D0470130ABD023689B0713D4E0681D
:104EF000039B9842B8BF1846A4E7012332464946AF
:104F00004046D04701309BD00135E36803995B1AD6
:104F1000AB42F2DCEBE7002504F11906F5E700BF30
:104F20000463000015630000F8B50E4614460546FC
:104F300018B183690BB900F0D9F9214B9C422BD1F0
:104F40006C68A369A360A3891A072FD523696BB383
:104F500023692068C01A6369F6B28342374604DCCD
:104F60002146284600F02EF930BBA368013BA36020
:104F700023685A1C22601E7063690130834204D08A
:104F8000A389DB0706D50A2E04D12146284600F066
:104F900019F988B93846F8BD0A4B9C4201D1AC6872
:104FA000CFE7094B9C4208BFEC68CAE72146284678
:104FB00000F00CF80028CBD04FF0FF37EAE700BF35
:104FC000486300006863000028630000324B70B53E
:104FD0001D6806460C4625B1AB6913B9284600F09A
:104FE00085F92E4B9C420FD16C68A389B4F90C2033
:104FF00019072CD4DD0611D40923336042F0400395
:10500000A3814FF0FF303EE0254B9C4201D1AC68BC
:10501000EBE7244B9C4208BFEC68E6E7580712D543
:10502000616B41B104F14403994202D03046FFF76D
:105030003DFC00236363A38923F02403A3810023A1
:10504000636023692360A38943F00803A381236974
:105050004BB9A38903F42073B3F5007F03D0214635
:10506000304600F007FAA089B4F90C2010F00103D3
:105070000AD00023A36063695B42A361236943B93B
:1050800010F08000BAD170BD810758BF6369A3607A
:10509000F4E70020F7E700BF0000002048630000AD
:1050A000686300002863000008B5062000F0A0FA3D
:1050B0000120FBF743F900008A892DE9F0410546FC
:1050C00010070C4658D44B68002B05DC0B6C002BEA
:1050D00002DC0020BDE8F081E66A002EF9D0002352
:1050E00012F480522F682B6032D0606DA3895A076A
:1050F00005D56368C01A636B0BB1236CC01A00231B
:105100000246E66A216A2846B047431CA38906D1B5
:1051100029681D292CD82A4ACA40D60728D500223A
:105120006260D9042269226004D5421C01D12B6837
:1051300003B96065616B2F600029CAD004F1440394
:10514000994202D02846FFF7B1FB00206063C1E717
:10515000216A01232846B047411CC7D12B68002B88
:10516000C4D01D2B01D0162B01D12F60B1E7A3892C
:1051700043F04003A381ADE70F69002FA9D0930747
:105180000E6808BF4B690F6018BF0023A6EB070825
:105190008B60B8F1000F9CDD216AA66A43463A464F
:1051A0002846B047002806DCA38943F04003A381CA
:1051B0004FF0FF308EE70744A8EB0008E9E700BF97
:1051C0000100402038B50B6905460C4613B900258F
:1051D000284638BD18B183690BB900F087F8144B25
:1051E0009C421BD16C68B4F90C30002BEFD0626E7E
:1051F000D00704D4990502D4A06D00F015F9284613
:105200002146FFF759FF636EDA070546E0D4A3890C
:105210009B05DDD4A06D00F008F9D9E7054B9C4251
:1052200001D1AC68DFE7044B9C4208BFEC68DAE7C9
:10523000486300006863000028630000002310B585
:105240000446C0E90033C0E90433836081814366CA
:10525000C2818361194608225C30FBF767F8054B71
:105260006362054BA362054BE362054B2462236333
:1052700010BD00BF295600004B56000083560000A9
:10528000A7560000014900F0AFB800BFC5510000AB
:1052900070B54A1E682555430E4605F17401FEF7A8
:1052A000DFFB044640B10021C0E900160C30A060CD
:1052B00005F16802FBF73AF8204670BD014800F09E
:1052C000B3B800BF680D0020014800F0AEB800BFC1
:1052D000680D0020014800F0A7B800BF630D002052
:1052E000014800F0A2B800BF630D002010B50446CD
:1052F000FFF7F0FFA3691BB1BDE81040FFF7F0BF57
:10530000C4E912332365134B134A1B68A262A342FC
:1053100004BF0123A361204600F020F8606020460E
:1053200000F01CF8A060204600F018F80022E060B1
:1053300004216068FFF782FFA06801220921FFF7BE
:105340007DFFE06802221221FFF778FF0123A361AD
:10535000D2E700BFB85D000085520000F8B50746EF
:10536000FFF7ACFF1E4B1E68B36913B93046FFF759
:10537000BDFF4836D6E90134013B03D533680BB392
:105380003668F7E7B4F90C50D5B9164BE36004F171
:105390005800656600F047F8FFF796FFC4E901552D
:1053A000C4E904552560A5610822294604F15C0082
:1053B000FAF7BCFFC4E90D55C4E912552046F8BD03
:1053C0006834D9E704213846FFF762FF04463060AD
:1053D0000028D5D1FFF778FF0C233B60EEE700BF34
:1053E000B85D00000100FFFF2DE9F843064688463E
:1053F00000F148040027D4E90195B9F1010905D568
:105400002468002CF7D13846BDE8F883AB89012B1E
:1054100007D9B5F90E30013303D029463046C047CD
:1054200007436835E9E770477047704770B50E4627
:10543000B1F90E10002996B014461D4607DA002374
:105440002B60B3891A0610D44FF480630EE06A46CD
:1054500000F050F90028F2DB019A02F47042A2F544
:1054600000535A425A412A60EEE74023002023604D
:1054700016B070BD8B8973B59D0706460C4607D5DF
:1054800004F14703236023610123636102B070BD0F
:1054900001AB6A46FFF7CAFF009905463046FEF7A2
:1054A000DFFA48B9B4F90C309A05EFD423F00303BE
:1054B00043F00203A381E3E70D4BB362A3892060AD
:1054C00043F08003A381009B6361019B20615BB17A
:1054D000B4F90E10304600F01FF928B1A38923F06B
:1054E000030343F00103A381A0890543A581CDE710
:1054F00085520000000000000000000000000000D5
:1055000001F0FF01102A2BDB10F0070F08D010F874
:10551000013B013A8B422DD010F0070F42B3F6D178
:10552000F0B441EA012141EA014122F007047FF091
:1055300000070023F0E80256083C85EA010586EAE8
:10554000010685FA47F5A3FA87F586FA47F6A5FA24
:1055500087F68EB9EED1F0BC01F0FF0102F0070230
:1055600032B110F8013B013A83EA010313B1F8D1DB
:105570000020704701387047002D06BF35460338BC
:10558000073815F0010F07D1013015F4807F02BFF5
:10559000013015F4C03F0130F0BC0138704700BF46
:1055A0001F2938B504460D4604D9162303604FF071
:1055B000FF3038BD426C12B152F821304BB9204651
:1055C00000F030F82A4601462046BDE8384000F099
:1055D00017B8012B0AD0591C03D1162303600120F0
:1055E000E7E7002442F82540284698470020E0E7F6
:1055F000024B01461868FFF7D3BF00BF0000002030
:1056000038B5074D00230446084611462B6000F0CC
:1056100099FB431C02D12B6803B1236038BD00BF46
:105620005C0D002000F07EBB10B50C46B1F90E10E9
:1056300000F094F80028ABBF636DA3891B1823F416
:105640008053ACBF6365A38110BD2DE9F0411F46B7
:105650008B89DB0505460C46164605D5B1F90E10BB
:105660000223002200F068F8A389B4F90E1023F495
:105670008053A38132463B462846BDE8F04100F006
:1056800017B810B50C46B1F90E1000F055F8431CD0
:10569000A38915BF606523F4805343F48053A3812D
:1056A00018BFA38110BDB1F90E1000F013B80000AF
:1056B00038B5074D04460846114600222A601A46AE
:1056C00000F066FB431C02D12B6803B1236038BD98
:1056D0005C0D002038B5064D0023044608462B60BB
:1056E00000F010FB431C02D12B6803B1236038BDCE
:1056F0005C0D002038B5074D0023044608461146CE
:105700002B6000F007FB431C02D12B6803B1236020
:1057100038BD00BF5C0D002038B5064D002304469F
:1057200008462B6000F006FB431C02D12B6803B136
:10573000236038BD5C0D002038B5074D044608468F
:10574000114600222A601A4600F004FB431C02D1D5
:105750002B6803B1236038BD5C0D002038B5074DC0
:1057600004460846114600222A601A4600F0FAFA5A
:10577000431C02D12B6803B1236038BD5C0D0020AF
:1057800070B54FF0FF0C4CF4E06C1CEA11541DBFD7
:105790001CEA135594EA0C0F95EA0C0F00F0DEF8A2
:1057A0002C4481EA030621EA4C5123EA4C5350EA87
:1057B000013518BF52EA033541F4801143F48013D8
:1057C00038D0A0FB02CE4FF00005E1FB02E506F069
:1057D0000042E0FB03E54FF00006E1FB03569CF0BE
:1057E000000F18BF4EF0010EA4F1FF04B6F5007FC4
:1057F00064F5407404D25FEA4E0E6D4146EB060636
:1058000042EAC62141EA55514FEAC52040EA5E50BE
:105810004FEACE2EB4F1FD0C88BFBCF5E06F1ED868
:10582000BEF1004F08BF5FEA500E50F1000041EB9F
:10583000045170BD06F0004646EA010140EA02004C
:1058400081EA0301B4EB5C04C2BFD4EB0C0541EA6E
:10585000045170BD41F480114FF0000E013C00F383
:10586000AB8014F1360FDEBF002001F0004170BDA7
:10587000C4F10004203C35DA0C341BDC04F11404C0
:10588000C4F1200500FA05F320FA04F001FA05F24C
:1058900040EA020001F0004221F0004110EBD37019
:1058A00021FA04F642EB06015EEA430E08BF20EA45
:1058B000D37070BDC4F10C04C4F1200500FA04F3E8
:1058C00020FA05F001FA04F240EA020001F000417A
:1058D00010EBD37041F100015EEA430E08BF20EAED
:1058E000D37070BDC4F1200500FA05F24EEA020E35
:1058F00020FA04F301FA05F243EA020321FA04F064
:1059000001F0004121FA04F220EA020000EBD3701A
:105910005EEA430E08BF20EAD37070BD94F0000F1A
:105920000FD101F00046400041EB010111F4801F4E
:1059300008BF013CF7D041EA060195F0000F18BFFF
:10594000704703F00046520043EB030313F4801F3B
:1059500008BF013DF7D043EA0603704794EA0C0FF5
:105960000CEA135518BF95EA0C0F0CD050EA41060B
:1059700018BF52EA4306D1D181EA030101F0004188
:105980004FF0000070BD50EA410606BF10461946B0
:1059900052EA430619D094EA0C0F02D150EA0136BC
:1059A00013D195EA0C0F05D152EA03361CBF1046FD
:1059B00019460AD181EA030101F0004141F0FE419C
:1059C00041F470014FF0000070BD41F0FE4141F420
:1059D000780170BD70B54FF0FF0C4CF4E06C1CEA20
:1059E00011541DBF1CEA135594EA0C0F95EA0C0FD5
:1059F00000F0A7F8A4EB050481EA030E52EA033590
:105A00004FEA013100F088804FEA03334FF08055B0
:105A100045EA131343EA12634FEA022245EA1115DD
:105A200045EA10654FEA00260EF000419D4208BF8E
:105A3000964244F1FD0404F5407402D25B084FEA3B
:105A40003202B61A65EB03055B084FEA32024FF4E7
:105A500080104FF4002CB6EB020E75EB030E22BF44
:105A6000B61A754640EA0C005B084FEA3202B6EB04
:105A7000020E75EB030E22BFB61A754640EA5C00B3
:105A80005B084FEA3202B6EB020E75EB030E22BF43
:105A9000B61A754640EA9C005B084FEA3202B6EB44
:105AA000020E75EB030E22BFB61A754640EADC0003
:105AB00055EA060E18D04FEA051545EA16754FEA65
:105AC00006164FEAC30343EA52734FEAC2025FEA83
:105AD0001C1CC0D111F4801F0BD141EA00014FF012
