:1000000000800020ED2E0000152F00001D080000CC
:100010002108000025080000290800000000000059
:100020000000000000000000000000001F2F000082
:10003000212F000000000000232F0000252F0000CA
:100040000D230000272F000079230000D923000092
:10005000272F0000272F0000272F0000272F000048
:10006000272F0000272F0000272F0000272F000038
:10007000272F0000272F0000272F0000272F000028
:10008000272F0000272F0000272F0000272F000018
:10009000272F0000272F0000272F0000272F000008
:1000A000272F0000272F0000272F0000272F0000F8
:1000B000272F0000272F0000000000000000000094
:1000C000272F0000272F0000272F0000272F0000D8
:1000D000272F0000272F0000272F0000272F0000C8
:1000E000272F0000272F0000272F0000000000000E
:1000F00000000000272F000000000000272F000054
:1001000000000000000000000000000000000000EF
:1001100000000000000000000000000000000000DF
:1001200000000000000000000000000000000000CF
:1001300000000000000000000000000000000000BF
:1001400000000000000000000000000000000000AF
:10015000000000000000000000000000000000009F
:10016000000000000000000000000000000000008F
:10017000000000000000000000000000000000007F
:10018000000000000000000000000000000000006F
:10019000000000000000000000000000000000005F
:1001A000000000000000000000000000000000004F
:1001B000000000000000000000000000000000003F
:1001C000000000000000000000000000000000002F
:1001D000000000000000000000000000000000001F
:1001E000000000000000000000000000000000000F
:1001F00000000000000000000000000000000000FF
:1002000010B5054C237833B9044B13B10448AFF350
:1002100000800123237010BD880900200000000029
:100220007832000008B5034B1BB103490348AFF314
:10023000008008BD000000008C090020783200001A
:10024000A3F5803A704700BF174B002B08BF134B34
:100250009D46FFF7F5FF00218B460F461348144AD1
:10026000121A00F063F80E4B002B00D098470D4B8C
:10027000002B00D098470020002104000D000D48FD
:10028000002802D00C48AFF3008000F02BF82000CB
:10029000290000F00FF900F011F800BF000008007D
:1002A00000000000000000000080002088090020FD
:1002B00048190020000000000000000008B5074BAE
:1002C000044613B10021AFF30080054B1868836A20
:1002D00003B19847204600F031F800BF000000004D
:1002E0006C2F000070B50D4D0D4C641BA410002642
:1002F000A64209D10B4D0C4C02F02CFE641BA4103D
:100300000026A64205D170BD55F8043B984701363A
:10031000EEE755F8043B98470136F2E780010020EC
:100320008001002080010020840100200244034657
:10033000934200D1704703F8011BF9E7FEE700BFC5
:100340001B4B1C4A1C481D4970B40326C3F80062AD
:10035000D226C3F844650426C3F810656FF08E06F4
:10036000C3F81C25C3F8246500220126C3F82C25F8
:10037000C3F830652726C3F85465114CC3F814053B
:1003800040F25B60C3F818450E4DC3F8380540F2E3
:1003900003141A20C3F83C55C3F83445C3F80805C4
:1003A000C3F80415C3F81021C3F80C2570BC7047BE
:1003B0000010004000294176080100016000002083
:1003C000FF000300555555002DE9F041314B324EE9
:1003D000324D334FDFF8D8802DED028BF61AF60838
:1003E00036049FED308A82B046F0030600240023D5
:1003F0009FED2D7A1946284650F8042F013302FB51
:1004000003FC07EE90CAF8EE677A802B37EE277A66
:100410001144F1D107EE901AF8EEE77AC7EE276A99
:10042000F5EEC06AF1EE10FA2AD43B46BDEEE67A4C
:10043000F5EEC06AF8EEC77AF1EE10FACCBF76EEB0
:10044000E76A77EEE66A19498DED007A66EE887AFA
:100450002246FDEEE77A3046CDED017A00F0E2FE6D
:1004600000F00CFC0028FBD10134042C05F50075CC
:10047000BDD19FED0D0A02B0BDEC028BBDE8F0814D
:10048000FFEE007AF4EEE76AF1EE10FACDDD4346B6
:10049000CCE700BF7C320000A432000084010020C1
:1004A000643100000000C84200000000742F00000A
:1004B000702F00002DE9F04F2DED028B4FF400411D
:1004C00083B0002000F080FB002840F06B8100F03A
:1004D0006BFBB648B64BB74AB74CC2F844451B1A3B
:1004E000DB081B044FF0A044B449B54DC2F84015D9
:1004F00043F00306C0200123C2F84C55C2F848154A
:10050000C2F80405AF49C4F834373046C4F8383768
:1005100008EE106A00F0E8FC00F0B0FB0028FBD108
:100520004FF080440123C4F80001014623604FF4DA
:1005300000720190A448FFF7F9FE0199A3484FF417
:100540000072FFF7F3FE0199A1484FF40072FFF724
:10055000EDFE01999F484FF40072FFF7E7FED4F8D3
:100560000031002BFBD0002002F0A0FCFFF7E8FEDA
:1005700001232360984B994EDFF894821B68002278
:10058000326000240025B3F5A06F7BD24FF0A0436A
:10059000934FC8F8047500204FF400514FF4804287
:1005A000C8F80400C3F80815C3F80C253288844B3A
:1005B0008C49012052BA7A805860D860D3F840251F
:1005C0003A7118EE100AD2B200F05AFD00F056FB54
:1005D0000028FBD10123C8F80030D8F80031002BE7
:1005E000FBD00023C8F80031D8F80C31002BFBD029
:1005F0000023C8F80C31D8F81031002BFBD07A4812
:100600000021C8F810110368326801330132322B1F
:10061000326078D803604FF0A0434FF48041C3F8B4
:10062000081500227149C8F800200123C8F80430D9
:10063000C8F804156E490A60D8F81021002A4FD175
:1006400040F60101D8F81021002A44D101338B4231
:10065000F8D1674A4FF4006313600123C8F80C30E7
:10066000C8F81030D8F81031002BFBD061490A6867
:10067000594B01321B680A600022B3F5A06FC8F81D
:10068000102183D3DFF88C91DFF88CB109F1040ECF
:1006900000275846430752D1AEF50073AEF50271FC
:1006A000A0F10802F1E902ABE3E802457345E2E993
:1006B00002ABF7D1504B09F50079994500F5007070
:1006C0000EF5007EE6D1444A174600231360FFF77B
:1006D0007BFE3B6857E7464AB3F5006F1360BCD01A
:1006E000464B1B682BB94FF0A0434FF40052C3F8A0
:1006F0000C25434A136801331360D8F8003473B9EA
:10070000354B1B68B8E73B4A3748136801600A2B32
:100710003A48116094BF0023012303607BE7334A0A
:10072000384F33689078D2783968013B9BB202EB3E
:1007300000220131934239600CD0334997E7AEF57E
:100740000173021F53F8041F42F8041F4B451F603A
:10075000F8D1AFE7254A1A4B92F8049092F805A019
:100760002A4901225A60D3F84025A2F58F53183B3D
:1007700018EE100AA3EB090900F082FC00F07EFAE3
:100780000028FBD1B9F17F0F07D80F4909EBCA1335
:1007900051F82320013241F823200F4A1368013316
:1007A000136069E700F0A4FF91E600BF7C3200000F
:1007B000A432000000F001404080004004110040DD
:1007C00000800040A02F0000A8090020A80B0020F6
:1007D000A80D0020A80F0020A8110020C41200209E
:1007E00060000020B42F0000C8120020BC110020BF
:1007F000C0120020BC120020A4130020AC11002065
:10080000B4110020B8110020B0110020C82F000042
:1008100000100040A40B002088010020FEE700BF6C
:10082000FEE700BFFEE700BFFEE700BF10B44FF0D9
:1008300080414FF080520020C1F80C01404BC1F8BC
:100840001001C1F83805D2F80414C3F82015D2F805
:100850000814C3F82415D2F80C14C3F82815D2F8DC
:100860001014C3F82C15D2F81414C3F83015D2F8AC
:100870001814C3F83415D2F81C14C3F84015D2F874
:100880002014C3F84415D2F82414C3F84815D2F83C
:100890002814C3F84C15D2F82C14C3F85015D2F80C
:1008A0003014C3F85415D2F83414C3F86015D2F8D4
:1008B0003814C3F86415D2F83C04C3F86805D2F8BC
:1008C00040042049C3F86C050968D2F84424C3F8F1
:1008D000702508291AD04FF08043D3F80024D2079E
:1008E00044BF6FF00102C3F80024174AD2F88830E1
:1008F00043F47003C2F88830BFF34F8FBFF36F8F9C
:10090000124B134A1A605DF8044B7047114B1B6879
:10091000002BE0D11048114A114C04601149124BD0
:10092000FB20C2F818050A681B68104822F00F0265
:1009300003F00F0313434FF400720B600260CAE729
:1009400000C000403001001000ED00E06001002018
:100950000090D003340100108C56004000F000409D
:1009600048810300E40E0040580200104096024007
:10097000F0B595B000241D460E460846174601F016
:10098000A7FB304623460822099505A91A9D08971A
:100990000D950A948DF82C400C9401F0FDFB9DF808
:1009A00014308DF81140DDE9061003F00302012A2E
:1009B000CDE9020128D0022A04D0304601F08CFB98
:1009C00015B0F0BDBDF81650C3F3C2038DF810305A
:1009D000C5F389150827082D2C4628BF08243B4657
:1009E00022460EA9304601F0D7FB2D1B214608AB4D
:1009F00002AA0EA8274400F0FDFD002DEBD13046E1
:100A000001F06AFB15B0F0BDBDF81470059DC7F389
:100A10008312C3F3C2040EA93046920008238DF856
:100A20001040C7F3831701F0B7FBC5F3952508AB5A
:100A30003A4628460EA9009302AB00F063FD30460B
:100A400001F04AFB15B0F0BD014B01221A7070474E
:100A500010130020704700BF00B583B0044B009313
:100A6000044A4023FFF784FF03B05DF804FB00BF96
:100A7000790A0000D012002038B50E480E4D0378D8
:100A80000E4CEB5C00252570D2B253B1043002F05D
:100A9000B9F958B90A4B1B7813B12378002BFCD055
:100AA00038BD0C3001F026FF0028F3D000F020FE06
:100AB000F0E700BF6401002044190020101300205B
:100AC000CC1200202DE9704319481A4A0378D35CF0
:100AD00088B02BB3043002F013F9174D0FCD6C46DC
:100AE0000FC495E80F004FF0EB7684E80F004FF04D
:100AF00006084FF0FF394FF0FF344FF0FF350C4838
:100B0000069600226946CDE90089CDE9024501F04B
:100B1000B9FB48B9094B00221A7008B0BDE87083D0
:100B20000C3001F069FED8E700F0E2FDF2E700BF0B
:100B30006401002044190020DC2F0000CC120020AA
:100B4000F0B5154D0FCD89B06C460FC495E80F0078
:100B50004FF0EB7C84E80F0006264FF0FF374FF094
:100B6000FF344FF0FF350D4A0D48CDF818C06946E7
:100B7000CDE90067CDE9024501F084FB20B9094BBE
:100B800001221A7009B0F0BD00F0B2FD054B012240
:100B90001A7009B0F0BD00BFDC2F0000490A000048
:100BA00064010020CC12002008B5FFF7C9FF0448FB
:100BB000042100F023FC034B01225A7108BD00BF41
:100BC000BC3200007801002038B50C4B0C480024E2
:100BD00000250022C3E90045FF21C3F818249960CD
:100BE00083F82024C3F8142401F026FA044610B92F
:100BF000044801F005FB204638BD00BFE813002083
:100C0000CC3200003430000099B10E4B0E495B1A13
:100C1000DB0815D030B400220C4D02E001329342C3
:100C20000BD035F822408442F8D151F8320030BC64
:100C30007047054951F830007047002030BC7047BC
:100C400018467047BC3200007C3200008809002042
:100C5000094B013903EBC00003290BD8DFE801F091
:100C6000040208060420704702207047407970474C
:100C700000797047002070477C3200002DE9F04772
:100C8000934CD4E900239A4284B063D00023C4F883
:100C90001834BFF34F8FD4E9013503EA0501CA1CAC
:100CA00004EB820614F82220500719D52768327801
:100CB00002F00302012A43D0022A03D172880233D0
:100CC00003EB921305EA0301D4F81804CA1C04EBE1
:100CD000820628B99F4239D914F822205207E6D457
:100CE00004EB81015A1CC96801912A4004EB82027D
:100CF00001F00301D2680292022903F102062DD00D
:100D0000012900F09080D4F810543DB12B6828469A
:100D10009B689847EB681D68002DF7D16D486E4BB6
:100D20006E49C01AC008000440F0020000F0DCF870
:100D3000D4E90030C01A18BF012004B0BDE8F08724
:100D400032880233C2F383121344BBE7676004B0F6
:100D5000BDE8F087002004B0BDE8F087BDF806309C
:100D60005F48C3F38919B9F1500FC84628BF4FF047
:100D7000500868F38F1308F10801ADF8063001F050
:100D80005DF907460028BED001F0A2F90023082231
:100D900001A9384601F0CCF925EA06030133B8EB86
:100DA000830F4FEA830A78D9BAF1000F00F08880E8
:100DB00005EA06010331A8EB0A0804EB81010823C8
:100DC000524638465FFA88F801F0B2F94549424682
:100DD0000AF10803384601F0ABF909F1030906EB03
:100DE0009906D4F81834002B66D1D4F8105465B1A4
:100DF000EB685A7928463946002A59D02B681B6877
:100E00009847EB681D68002DF2D1384601F064F96F
:100E1000002000F0B5FCD4F8183403B96660002057
:100E200000F0B6FC84E7BDF804302D48C3F383120C
:100E3000062A28BF0622911C62F389138900ADF8A7
:100E4000043001F0FBF8074600283FF45CAF01F0E6
:100E50003FF90023082201A9384601F069F9BDF8DD
:100E6000043013F4707FBCD04FF0000831462940A5
:100E70004FEA88030331083304EB8101042238462A
:100E800001F056F9BDF8043008F10108C3F38313EB
:100E9000434506F10106E9D8A3E705EA0601033157
:100EA00004EB810142460823384601F041F994E7FA
:100EB0001D68002D9CD1A8E7384601F00DF937E7F1
:100EC000084942460823384601F032F985E700BF59
:100ED000E8130020A43200007C3200001C30000027
:100EE000CC320000F41300202DE9F04F624C87B0A3
:100EF00006460020A568019100F042FCD4E90123D8
:100F000027681A440132D21B012A00F2858004F2BC
:100F10001C4804F5836A04F214491BE0BDF80E3046
:100F2000C3F389130333090C0BEB930B4846009171
:100F300000F072FC009900283ED04046C4F804B08E
:100F400000F03EFCD4E90113226819440131891AEA
:100F5000012962D80121404600F032FC504600F0E1
:100F60004BFC484600F048FCD4E9013C03EA0C0283
:100F7000D11C04EB810014F821E01EF0040F0EF0E8
:100F8000040129D104EB8202591CD268039201EAC0
:100F90000C0104EB810102F00302012AC96803F18C
:100FA000020B32D0022AB9D000214846009100F04D
:100FB00033FC00990028C0D14046C1E743880BEBC1
:100FC00093130CEA0302D11C04EB810014F82110E6
:100FD00001F004010029D5D090F800E00EF0030ED6
:100FE000BEF1010F0BD0BEF1020F03F1020B02F1B3
:100FF000030EE3D004EB8E000029EDD1C2E7028896
:101000000233C2F383121344DBE7BDF80C30C3F3A1
:101010008313090C9B4489E73A4613400333023299
:101020000521002044F82310226000F0B1FB0021CC
:10103000124800F0B7FB80F31000F1007B1C2B403E
:10104000019A01F038013D4004EB830341F00101B6
:101050000004033540EA164641EA8221DE6044F886
:10106000251094F820341BB1FFF708FE0028FBD1AF
:1010700007B0BDE8F08F00BFE8130020041800207F
:101080002DE9F04F654C89B007460020CDE90212EA
:10109000A56800F075FBD4E9012326681A440132E3
:1010A000921B022A00F2858004F21C4804F5836A30
:1010B00004F214491BE0BDF81630C3F3891303335F
:1010C000090C0BEB930B4846019100F0A5FB01992D
:1010D00000283ED04046C4F804B000F071FBD4E9CB
:1010E0000113226819440131891A022962D80121A9
:1010F000404600F065FB504600F07EFB484600F09D
:101100007BFBD4E9013C03EA0C02D11C04EB810017
:1011100014F821E01EF0040F0EF0040129D104EBB5
:101120008202591CD268059201EA0C0104EB81018C
:1011300002F00302012AC96803F1020B32D0022A2D
:10114000B9D000214846019100F066FB01990028C2
:10115000C0D14046C1E743880BEB93130CEA03026E
:10116000D11C04EB810014F8211001F004010029C6
:10117000D5D090F800E00EF0030EBEF1010F0BD0B9
:10118000BEF1020F03F1020B02F1030EE3D004EBF8
:101190008E000029EDD1C2E702880233C2F3831228
:1011A0001344DBE7BDF81430C3F38313090C9B44ED
:1011B00089E732461340033303324521002044F8C7
:1011C0002310226000F0E4FAB31C2B4004EB8303ED
:1011D000039A1348DA60002100F0E4FA80F310006B
:1011E000F900731C2B40029A01F03801354004EBE2
:1011F000830341F041010004033540EA174741EA07
:101200008221DF6044F8251094F820341BB1FFF7E9
:1012100035FD0028FBD109B0BDE8F08FE8130020B0
:10122000041800202DE9F04F724C89B007460020C9
:10123000CDE901120393A56800F0A2FAD4E90123D5
:1012400026681A440132921B052A00F2858004F2B6
:101250001C4804F5836A04F214491BE0BDF81630FB
:10126000C3F389130333090C0BEB930B484600912E
:1012700000F0D2FA009900283ED04046C4F804B0ED
:1012800000F09EFAD4E90113226819440131891A49
:10129000052962D80121404600F092FA504600F03C
:1012A000ABFA484600F0A8FAD4E9013C03EA0C0284
:1012B000D11C04EB810014F821E01EF0040F0EF0A5
:1012C000040129D104EB8202591CD268059201EA7B
:1012D0000C0104EB810102F00302012AC96803F149
:1012E000020B32D0022AB9D000214846009100F00A
:1012F00093FA00990028C0D14046C1E743880BEB20
:1013000093130CEA0302D11C04EB810014F82110A2
:1013100001F004010029D5D090F800E00EF0030E92
:10132000BEF1010F0BD0BEF1020F03F1020B02F16F
:10133000030EE3D004EB8E000029EDD1C2E7028852
:101340000233C2F383121344DBE7BDF81430C3F356
:101350008313090C9B4489E732461340033306325A
:1013600040F20511002044F82310226000F010FA2A
:10137000B11C06F1030C29400CEA050C321D731D4B
:101380002B402A4004EB810104EB8C0C0298C860CE
:1013900004EB820204EB830E039BCCF80C30129B0F
:1013A000D3600021139B1448CEF80C3000F0FAF9FA
:1013B00080F31000F90001F03801731C2B40019AF2
:1013C00041F48071354004EB830341F001010004D6
:1013D000033540EA174741EA8221DF6044F82510CF
:1013E00094F820341BB1FFF749FC0028FBD109B069
:1013F000BDE8F08FE81300200418002030B4154D2C
:10140000D5F810140446002071B10B4601E01B68AA
:1014100053B1DB681A798242F9D101300A28F3D13D
:101420004FF0FF3030BC7047E3681871D5F81034C6
:101430004BB1DA68E36812681A60D5F81034DB68DB
:101440001C6030BC7047C5F81044E268136030BCC3
:10145000704700BFE813002038B5094BD3F810449B
:10146000012583F820544CB1E3685D712368204660
:101470005B689847E3681C68002CF5D138BD00BF55
:10148000E813002030B5C38885B004460D461BBB69
:10149000217A05291ED0627A82B9134AA08852F8AF
:1014A000212003920021FFF7AFFB039A0F49034667
:1014B000284605B0BDE8304000F022BAA088FFF70A
:1014C000C7FB0B4B0B4953F82020284600F018FAB5
:1014D000217AE2E705B030BD074A00920749084A81
:1014E000284600F00DFAD3E7083100006C30000008
:1014F000E430000068300000603000004830000038
:10150000403000002DE9F04385B04FF0000C0C9CFA
:10151000814694F80C8084F80CC00E461746184695
:1015200021461D46FFF7AEFF062F09D8DFE807F07A
:10153000042E343B444F1F004946204600F0E0F99A
:101540002B7A052B05D06B7A5BB92749204600F032
:10155000D7F9204600F0C8F984F80C8005B0BDE842
:10156000F083224A2249204600F0CAF9EDE7D6E985
:101570000413F2680393B3680291CDE9003249463F
:10158000D6E90023204600F0BBF9D9E73268494686
:10159000204600F0B5F9D3E7D6E9002349462046B6
:1015A00000F0AEF9CCE7B3680093D6E900234946D2
:1015B000204600F0A5F9C3E7D6E902320192009374
:1015C000D6E900234946204600F09AF9B8E7D6E963
:1015D0000321B3680291CDE900324946D6E90023E0
:1015E000204600F08DF9ABE79C2F00006030000032
:1015F00068300000082900D970472DE9F04F9B465C
:1016000083B000241B7B8BF80C400D4606465946E0
:10161000104690460193DFF8D0902C4FFFF732FF31
:1016200005E0325D013400F06BF9082C09D0A542C9
:1016300039465846F5D84946013400F061F9082C7E
:10164000F5D12349DFF8A490224C234F584600F0EF
:1016500057F94FF0000A0DE0D15D11F0970F08BF68
:101660002E22214658460AF1010A00F049F9BAF142
:10167000080F10D0554505D916F80A207E2AEBD957
:101680002E22EEE7494658460AF1010A00F038F9E1
:10169000BAF1080FEED198F80830052B02D098F86F
:1016A000093063B90D49584600F02AF9584600F050
:1016B0001BF9019B8BF80C3003B0BDE8F08F084A92
:1016C0000849584600F01CF9ECE700BF78300000EC
:1016D0008430000088300000773100009C2F00002B
:1016E000603000006830000080300000743000007E
:1016F00000B585B00346002101AA44F20100CDE9FE
:101700000111039300F004F805B05DF804FB00BF7D
:1017100010B572B6FFF7A0FEFFF7B0FA0028FBD1B4
:10172000104B114C1149E41AE408240444F0010060
:10173000FFF7DAFB0E4B1B68DB0700D500BE0D4937
:1017400044F00200FFF7D0FBBFF34F8F0A490B4B69
:10175000CA6802F4E0621343CB60BFF34F8F00BF4F
:10176000FDE700BF7C320000A43200001C31000005
:10177000F0ED00E02831000000ED00E00400FA0583
:1017800072B6024A1368013313607047A418002030
:10179000034A1368013B136003B962B6704700BF88
:1017A000A418002010B4034653E8000F0A4643E88B
:1017B000002494F0000FF7D15DF8044B704700BF90
:1017C00010B4034653E8002F02EB010043E8000485
:1017D00094F0000FF6D15DF8044B704710B4034647
:1017E00053E8002FA2EB010043E8000494F0000F3F
:1017F000F6D15DF8044B704710B40346012253E85C
:10180000001F41EA020043E8000494F0000FF6D103
:101810005DF8044B704700BF10B40346002253E844
:10182000000F00EA020143E8001494F0000FF6D123
:101830005DF8044B704700BFB8B130B4D0E9011275
:10184000521A0468D2B2531E2160DBB242B1016861
:101850000A685C1E551C0D601370E3B2FF2BF6D1B5
:1018600003680020187130BC70470E20704700BF1D
:1018700038B504460020FFF783FFD4E900311A6829
:101880008A4215D9511E19602168A3680868258A03
:1018900012F8012CE4681B1A0879DBB2984205FBA8
:1018A000024400D20B710020FFF772FF204638BDC2
:1018B00000240020FFF76CFF204638BD38B50546F0
:1018C00000200C46FFF75CFF2A681368591C116062
:1018D000E9682A8A641AB4FBF2F41C70BDE8384047
:1018E0000020FFF755BF00BF826842B110B5044623
:1018F00043690168006998470023A36010BD7047E1
:101900000EB400B582B0039921B104AB01AA0193D2
:1019100000F0ACF802B05DF804EB03B0704700BF14
:101920002DE9F04F164683B0B142DDE90C920F4627
:1019300005469A46C0F095800B464FF00108B3FB70
:10194000F6F39E4208F10108F9D9D04538BFD046D8
:1019500012F00103019302D1B9F1000F5ED1AA6820
:10196000012403E00AF1FF3A06FB04F4BAF1010F87
:10197000F8D8B7FBF4F39E42F6D9DFF8ECA007E005
:10198000B442B4FBF6F31AD3AA681C46B7FBF3F3D0
:101990001AF803B0BBF10A0F04FB137728D02B68A9
:1019A000511CA96003F802B0D5E901329A42E7D38D
:1019B0002846FFF799FFB4FBF6F3B442E4D2019B4B
:1019C0009BB1B9F1000F10D02024C84509F1FF39AF
:1019D0000BD2AB682A68591CA960D454D5E90132EE
:1019E0009A4214D2B9F1000FEFD103B0BDE8F08FE5
:1019F000511C2B68A9604FF00D019954D5E90132B3
:101A00009A42CCD32846FFF76FFFAA68C7E728465B
:101A1000FFF76AFFB9F1000FD7D1E6E793071AD4B1
:101A20002024AA68C84502F1010199D22B68A96057
:101A30009C54D5E901329A4209F1FF3903D2B9F138
:101A4000000FEFD18CE72846FFF74EFFAA68B9F1E7
:101A5000000FE7D184E7BAF1000F0CBF3024202437
:101A6000DFE74FF0010870E738310000002900F08F
:101A700054822DE9F04FDFF8B8950C7885B0064612
:101A800090460D464FF00D0A10E00A2CB36800F0A6
:101A9000AD803268591CB160D454D6E901329A4203
:101AA00080F0A0802C78002C00F087800135002C7D
:101AB00000F08380252CE8D1294600270D4611F837
:101AC000012B2D2A00F08880302A00F088802B2AF4
:101AD0007AD02A2A00F09980A2F13003092B4FF026
:101AE00000040BD804EB840402EB440415F8012F26
:101AF000A2F13003092BA4F13004F3D92E2A00F00F
:101B00009080002301E015F8012F02F0FB01682905
:101B1000F9D0252A00F07781583AD1B2202947D848
:101B2000202A45D8DFE812F0350144004400440083
:101B30004400440044004400440044004400430185
:101B400013014400440044004400130144004400D5
:101B50004400440044004400D20044004400A20079
:101B6000440094004400440035010120984202469C
:101B700038BF1A460292002C40F05081B80740F15D
:101B80006E81002B40F04E821C46BBF1000FC0F26C
:101B90000A827A0700F11A8207F00302022A00F093
:101BA000EA81CDE9004759460A223046FFF7B8FEE0
:101BB00001352C78002C7FF479AF337B002B40F07B
:101BC0001C8105B0BDE8F08F0D4611F8012B2D2AC0
:101BD00047F004077FF478AF47F001076EE747F05E
:101BE00002076BE73046FFF77FFE5BE73268591C60
:101BF000B16002F803A0D6E901239342FFF449AF94
:101C00003046FFF771FEB36843E7D8F800301A1D7D
:101C1000C8F800206A781C682E2A05F101057FF4B7
:101C200070AF6A78A2F13003092B05F101054FF07E
:101C300000033FF66AAF03EB830302EB430315F89F
:101C4000012FA2F130010929A3F13003F3D95CE798
:101C5000D8F80020111DC8F8001011683046CDE9F1
:101C600000470A22FFF75CFE0135A2E7D8F80030F2
:101C70001A1DC8F8002017F00107D3F800B040F093
:101C8000F080BBF1000F03D0584601F05BF9074626
:101C9000BC4240F24381002C00F04081202205E04C
:101CA000BC4200F03B81002C00F03881B168336801
:101CB000481CB0605A54D6E90130984204F1FF3410
:101CC000EED33046FFF710FE2022E9E7D8F80020D7
:101CD000131DC8F80030B36831681768581C3022EB
:101CE000B060CA54D6E90123934280F0EF80326895
:101CF000581C7821B060D154D6E901329A4280F064
:101D0000E0800F2F03D93B461B090F2BFCD84FF067
:101D1000805406E00F2C4FEA14137FF649AFB268E7
:101D20001C46B7FBF4F319F803B0BBF10A0F04FB30
:101D3000137754D03368511CB16003F802B0D6E970
:101D400001329A42E6D33046FFF7CEFDE2E7D8F8FB
:101D50000020111DC8F80010D2F800B08BEAEB7219
:101D6000A2EBEB72092A7FF700AFDFF8C8C20120AF
:101D700011466329ACFB02E200F101004FEAD202F6
:101D8000F6DC9842024638BF1A460292002C45D132
:101D9000F4E6D8F80020111DC8F80010116830468C
:101DA000CDE900471022FFF7BBFD013501E7D8F868
:101DB00000301A1DC8F800201C78B3680A2C00F007
:101DC00011813268591CB160D454D6E901329A426B
:101DD000FFF4EEAE3046FFF787FD0135E9E63368E4
:101DE000511CB16003F802A0D6E901329A42A1D396
:101DF0003046FFF779FDB2689CE7304605B0BDE894
:101E0000F04FFFF771BDB3683168581CB060CA5419
:101E1000D6E901329A42DDD20135CAE6BBF1000FA4
:101E200059DB7A0757D4B80702D5002B3FF4ADAE83
:101E3000F9073FF5AAAE94B120220299A142BFF45E
:101E4000A4AEB168481CB06030684254D6E90101C4
:101E5000814204F1FF3480F0D480002CEDD10024C5
:101E600093E69BF80030002B00F0E080B0685F46FE
:101E7000CBF101020A2B02EB070B3CD0411CB160F5
:101E800031680B54D6E90130984226D217F8013F49
:101E9000002BEFD15C457FF68BAE202702E05C453E
:101EA0003FF486AEB2683368511CB1609F54D6E9E6
:101EB00001329A4204F1FF34F1D33046FFF714FDAA
:101EC000EDE73046FFF710FDB2681AE73046FFF73E
:101ED0000BFDB3680BE7013CA5E730460292FFF724
:101EE00003FD17F8013F002BD4D0029AB0680A2BEB
:101EF00002EB070BC2D1411CB160316801F800A0B0
:101F0000D6E901108842B9D33046CDE90232FFF755
:101F1000EBFCDDE90232B068B0E770479BF80040A7
:101F2000002C3FF445AE0A2CB0680ED03368421C3A
:101F3000B2601C54D6E90130984214D21BF8014F0C
:101F4000002C3FF435AE0A2CF0D13368421CB2604D
:101F500003F800A0D6E901309842E7D33046FFF7F6
:101F6000C3FCB068E2E73046FFF7BEFC1BF8014F48
:101F7000002CD8D11CE6002B7FF413AE8CB130229C
:101F80000299A142BFF40DAEB168481CB060306840
:101F90004254D6E90101814204F1FF343BD2002CC6
:101FA000EED10024FDE5B1684A1CB26032682D20F4
:101FB0005054D6E901219142CBF1000BFFF4ECAD76
:101FC00030460393FFF790FC039BE5E5B1684A1C9C
:101FD000B26032682B205054D6E901219142FFF4BF
:101FE000DBADEDE73268591CB16002F803A0D6E919
:101FF00001239342FFF4E5AE3046FFF775FCB3686A
:10200000DFE630460393FFF76FFC039B2022002C92
:102010007FF413AF23E730460393FFF765FC039B80
:102020003022BCE7F9073FF5B0AD18E79B4631E732
:1020300038310000CDCCCCCCFFF7FEBB2DE9F04110
:10204000058A0331043D4E198046B6FBF5F6FFF7CD
:102050000FFCA0B3F6B24FF48073013E0446C58076
:10206000C0F8008083802BD00346002508E0627909
:10207000AE4202F1010262713860C0F800801FD0E8
:1020800040461F46FFF7F4FB013503460028EED11A
:102090006779791E17D02246013399421268FBD125
:1020A000D2F800805FB12668002501E0344636682A
:1020B000214601354046FFF701FCAF42F6D8002427
:1020C0002046BDE8F08120682146FFF7F7FBF6E7E0
:1020D00004300121FFF774BB2DE9F04101210446D2
:1020E0000430FFF77BFB10F0FF0301D0BDE8F08167
:1020F0006779791E16D02246013399421268FBD1C6
:10210000D2F80080002FF1D02668002501E0344687
:102110003668214601354046FFF7D0FBAF42F6D87E
:10212000BDE8F08120682146BDE8F041FFF7C6BB5D
:102130002DE9F8430546C6884079144606FB00F2AF
:10214000043A04EB030C1F1D624538BFD41ABE428B
:102150008846B7FBF6F106FB117002D801392D68ED
:10216000FCD1371AA74228BF27469CB14FF000097F
:102170000430E41B28443A4608EB090100F0D4FE81
:10218000A642B9442D6837464FF0000028BF2746C5
:10219000002CEDD1BDE8F8832DE9F8430546C6884B
:1021A0004079144606FB00F2043A04EB030C1F1DB1
:1021B000624538BFD41ABE428846B7FBF6F106FB2B
:1021C000117002D801392D68FCD1371AA74228BFF7
:1021D00027469CB14FF0000904302918E41B3A4609
:1021E00008EB090000F0A0FEA642B9442D6837466E
:1021F0004FF0000028BF2746002CEDD1BDE8F88342
:1022000082680023936082681361826853618268E8
:10221000D3608268536082681360704730B585B0C0
:10222000047845688DF80040D0E90240064A074B23
:10223000039053F82130019552F821108DF8084091
:102240006846984705B030BDA8180020B018002097
:1022500030B585B0047845688DF80040D0E902407B
:10226000064A074B039053F82130019552F821108C
:102270008DF808406846984705B030BDA818002082
:10228000B01800202DE9F047DFF8748090F800E0E6
:102290004B7F08F80E300D46074616460FCD88B026
:1022A0006C460FC495E80F003D78DFF85890DFF8D2
:1022B00058C018F8055049F82E6084E80F004CF813
:1022C0002E00CDF810E05DB1002E0B4A694607F1F3
:1022D000040008BF324600F00BFC08B0BDE8F087F0
:1022E000002E064A694607F10C0008BF324600F08E
:1022F0008FF908B0BDE8F0871D22000051220000D0
:1023000044190020B0180020A818002010B5174B61
:102310001A6882B062B10021154A19601B685079B1
:1023200000934FF080410123009CC1F8083398B11D
:10233000104B1A68BAB100221A601B6801934FF063
:10234000804202210A4B0198C2F808131B68012041
:1023500002B0BDE810401847116853718847054B1B
:102360001A68002AE7D102B010BD00BF000100408A
:10237000B818002004010040014B1B68184700BF3B
:10238000C018002038B50C4B984213D100200D46E0
:10239000FFF7F6F9094B1C7924B10020FFF7F8F993
:1023A000112038BD012220461D601A71FFF7F0F997
:1023B000204638BD002038BD00200040C018002055
:1023C000034B984203D1034B00221A601A717047E5
:1023D00000200040C0180020194BD3F8182102B982
:1023E00070470021174AC3F81811D3F81811D37F8A
:1023F00082B0FF2B019101990DD0917F99B11F2BD4
:102400008ABF11484FF0A04003F01F03012101FAD9
:1024100003F3C0F80C35002353771372D2E900316F
:102420000A4802B018471F2B8ABF07484FF0A04048
:1024300003F01F03012101FA03F3C0F80835EAE7AE
:1024400000300040C818002000030050D0180020C1
:1024500030B56D4AD2F8043399058BB068D5D2F8FF
:102460002431002B64D00023C2F82431D2F8243167
:1024700003934FF40171654B0398C2F8081393F866
:10248000291009B9012151605F4902228DF81820F5
:10249000D1F88024C1F880249869D9680992002471
:1024A0000025CDE90710C3E90645D3E9001206A8C7
:1024B0009047554AD2F81C31C3B1544B186A596938
:1024C00088426AD293F8280000F0FF04002864D103
:1024D000C2F81C41D2F81C11029102999C68186A3A
:1024E000196A205C01311962C2F81C05464AD2F80B
:1024F0004431DBB10021454BC2F84411D2F844010C
:1025000093F829100090009809B1012111609A698F
:1025100062B1586AD96800229A610122CDE9071098
:102520008DF8182006A8D3E9001290470BB030BDF3
:10253000354AD2F804335B07BBD5D2F80831002BFB
:10254000B7D0324B996900293CD00021C2F808115C
:10255000D2F8081104910499D868596AD2F818255C
:1025600042545A6A996901325A625A6A8A42A0D11F
:10257000DA69002A2FD0DD685C6A18699A61012146
:102580000022D860DA615A628DF81810CDE907543C
:10259000D3E9001206A890478BE71B4A0020C2F837
:1025A0001C01D2F81C210192019A00299ED09A6840
:1025B0008DF8180008915861079206A8D3E9001217
:1025C000904793E7C2F80811D2F8080105900598E2
:1025D000D2F81825C9E793F8292012B90A4A01212F
:1025E0005160094A4FF40171C2F80813596ADA6858
:1025F00008910024012007928DF81800D3E90012F9
:102600009C6106A8904754E700200040F018002085
:102610002DE9F041DFF8DC8106792C2303FB0683EA
:1026200082B093F82A30002B40F09A8005460C4681
:1026300000686B491746FFF7A5FE002840F08C8024
:102640002368591C19D01F2B4FF001028ABF65491E
:102650004FF0A04103F01F0302FA03F3C1F808355D
:1026600023681F2B86BF03F01F035E4A4FF0A04272
:1026700003F5E073032142F8231063685A1C0BD062
:102680001F2B86BF03F01F03564A4FF0A04203F5ED
:10269000E073002142F823102B68A269C3F82425B7
:1026A000217D637D2A680B43C2F86C35D4E90012A2
:1026B0002B68C3F81425C3F80C15237D012B5BD0C0
:1026C0002C2303FB06F308EB03025760226948F84A
:1026D000032077B32A68237F434C0021C2F81C11E2
:1026E000D2F81C2100922A68009FC2F84411D2F847
:1026F00044112A6801910199C2F804432A6842F3FF
:10270000073100294FEA12322EDB01F1604101F559
:1027100061415B01DBB281F800332B68334C43F33A
:1027200007325209C3F30433012101FA03F344F8D9
:1027300022302C23296803FB06860424002301226F
:10274000C6E90633C1F8004586F82A2086F8293004
:10275000736102B0BDE8F081112002B0BDE8F081E4
:10276000082002B0BDE8F081214902F00F025B01B0
:102770001144DBB20B76D0E7A368591C0BD01F2B9A
:1027800086BF03F01F0317494FF0A04103F5E07324
:10279000002241F82320E3685A1C1AD01F2B8ABF5D
:1027A00010494FF0A04103F01F03012202FA03F386
:1027B000C1F80835E3681F2B88BF03F01F0303F53A
:1027C000E0738CBF07494FF0A041032241F823205A
:1027D000E3682A68A168C2F80835C2F810156FE7E7
:1027E00051240000000300508000020000E100E0DE
:1027F000FCEC00E0F0180020F8B53A4F04790268CC
:102800002C2303FB047300215B68C2F8001583B11D
:102810000368354AC3F808230268344D42F307338E
:102820005B092033C2F30432012101FA02F245F8B8
:10283000232003684FF0FF3CD3F80C65D3F8145500
:10284000D3F80825D3F81015C3F814C5C3F80CC580
:1028500003686645C3F808C5C3F810C50CD01F2E21
:1028600086BF06F01F06224B4FF0A04306F5E07628
:102870004FF0020C43F826C06E1C0BD01F2D86BFF4
:1028800005F01F051A4B4FF0A04305F5E075022631
:1028900043F825604D1C0BD01F2986BF01F01F0196
:1028A000134B4FF0A04301F5E071022543F821508E
:1028B000531C0BD01F2A86BF02F01F020C4B4FF097
:1028C000A04302F5E072022143F822100068FFF7EE
:1028D00077FD2C2303FB0474002384F82A30636003
:1028E000F8BD00BFF01800208402020000E100E003
:1028F000000300502DE9F041314E05792C2303FBF4
:1029000005630446586984B000284CD11862996068
:1029100083F828005A612268C2F81C01D2F81C1101
:10292000226802910121029F91602268D3F808C0B9
:10293000C2F81C01D2F81C11019101991F6A196A91
:102940001CF8077001311962C2F81C755A6812B17F
:1029500004B0BDE8F0811A6A5F692168BA421BD2EF
:10296000864602E093F828200ABBD1F81C21002AF1
:10297000F8D0C1F81CE1D1F81C210392039AD3F8D6
:1029800020801A6A1CF8088001321A62C1F81C857E
:102990001A6ABA42E9D32168D1F81C31002BFBD066
:1029A0000123CB6004E0112004B0BDE8F0810F20CA
:1029B0002C2303FB056500236B6104B0BDE8F081A7
:1029C000F018002030B5484BD3F8242189B0002AF4
:1029D00057D00022C3F82421D3F8242102920222E6
:1029E0008DF81020029AD3F88014404AC3F880145E
:1029F0000791D3F83C15D368069100240025059370
:102A0000C2E906451168536804A89847364BD3F8C5
:102A100044214AB10021354AC3F84411D3F8440196
:102A2000916901900198D9B92F4BD3F82021AAB10F
:102A30000021C3F82011D3F820012C4A00900098FF
:102A4000506958B1D3F84C05936806908DF8101072
:102A50005161059304A8D2E90013984709B030BD2D
:102A6000D3F83C35D1680693002400250123059155
:102A70008DF81030C2E90645D2E9001304A8984742
:102A8000D2E7D3F810110029C0D0C3F81021D3F831
:102A900010111648039103998469D3F83C15A1429B
:102AA000B4D1C469A4B1D3F80052846125F02005E3
:102AB000C3F80052D0E90343C26101220691C3600A
:102AC0000168436805948DF8102004A898479DE795
:102AD000C26884610123CDE905218DF81030D0E969
:102AE000001304A8984791E7002000402019002017
:102AF0002DE9F04307797C4E07EBC70306EB830310
:102B000085B093F82030002B40F0AD8004460D4690
:102B1000006876499046FFF735FC002840F09F801A
:102B20002B68591C4FEAC70919D01F2B4FF001021F
:102B30008ABF6F494FF0A04103F01F0302FA03F36D
:102B4000C1F808352B681F2B86BF03F01F03684AA6
:102B50004FF0A04203F5E073032142F823106B68A5
:102B60005A1C0BD01F2B86BF03F01F03604A4FF087
:102B7000A04203F5E073002142F823102368AA69FC
:102B8000C3F82425297D6A7D23680A43C3F86C2590
:102B9000D5E900312268C2F80C35C2F814152B7D36
:102BA000012B6CD009EB070206EB8203C3F804800B
:102BB0002B6946F82230B8F1000F3FD021682B7FF7
:102BC0004C4D0022C1F81021D1F81011009121685C
:102BD000DDF800C0C1F82021D1F820110191216851
:102BE000DDF804C0C1F82421D1F824110291216834
:102BF000DDF808C0C1F84421D1F8441122680391DE
:102C00000399C2F80453226842F3073100294FEABE
:102C100012322CDB01F1604101F561415B01DBB255
:102C200081F800332368344D43F307325209C3F36C
:102C30000433012101FA03F345F822304F4422689E
:102C400006EB8706002301240821C2F80015C6E917
:102C5000063386F82040736105B0BDE8F08311208B
:102C600005B0BDE8F083082005B0BDE8F083234936
:102C700002F00F025B011144DBB20B76D2E7AB68C6
:102C8000591C0BD01F2B86BF03F01F0318494FF0B0
:102C9000A04103F5E073002241F82320EB685A1CA1
:102CA0001AD01F2B8ABF12494FF0A04103F01F0317
:102CB000012202FA03F3C1F80835EB681F2B88BF25
:102CC00003F01F0303F5E0738CBF09494FF0A041E7
:102CD000032241F82320EB682268A968C2F808356E
:102CE000C2F810155EE700BF20190020C5290000BA
:102CF000000300501003020000E100E0FCEC00E0E3
:102D0000F8B506793B4C026806EBC60304EB830377
:102D100000215B68C2F80015F70083B10368364AEA
:102D2000C3F808230268354D42F307335B092033AB
:102D3000C2F30432012101FA02F245F823200368AC
:102D40004FF0FF3ED3F80CC5D3F81455D3F808253F
:102D5000D3F81015C3F80CE5C3F814E50368F4457F
:102D6000C3F808E5C3F810E50DD0BCF11F0F86BF0E
:102D70000CF01F0C224B4FF0A0430CF5E07C4FF001
:102D8000020E43F82CE06B1C0CD01F2D86BF05F003
:102D90001F051B4B4FF0A04305F5E0754FF0020CEB
:102DA00043F825C04D1C0BD01F2986BF01F01F0121
:102DB000134B4FF0A04301F5E071022543F8215079
:102DC000531C0BD01F2A86BF02F01F020C4B4FF082
:102DD000A04302F5E072022143F822103E4404EBC6
:102DE00086040068FFF7ECFA002384F82030636063
:102DF000F8BD00BF201900201003020000E100E030
:102E000000030050F0B401F06044B4F1005F82B000
:102E10002CD10579244E05EBC50406EB840403464A
:102E20006069EF00002839D16261A1601A68C2F8B8
:102E30002001D2F820C11A68CDF804C0DDF804C022
:102E4000C2F85801D2F8582100921A68DDF800C083
:102E5000D4F814C0C2F84415C2F848C51A68012154
:102E60009160626832B102B0F0BC7047102002B0CD
:102E7000F0BC70471B6800E0A0B9D3F82021D3F85C
:102E80005801002AF8D0002818BF0F207B1906EB44
:102E9000830300225A6102B0F0BC7047112002B0D7
:102EA000F0BC70470F20F1E7201900200E4B10B442
:102EB000002201210324C3F80425C3F80845596002
:102EC000C3F84025C3F84021C3F84421C3F8482182
:102ED000C3F84C21D960C3F80022C3F81005D960AB
:102EE0005DF8044B704700BF008000400649074A68
:102EF000074B9B1A03DD043BC858D050FBDCFDF7A1
:102F000095FCFDF7A1F90000E83200000000002068
:102F100088090020FEE7FEE7FEE7FEE7FEE7FEE7A2
:102F2000FEE7FEE7FEE7FEE70A44914200F1FF33C9
:102F300000D1704710B511F8014B03F8014F9142D1
:102F4000F9D110BD034613F8012B002AFBD1181A42
:102F500001387047F8B500BFF8BC08BC9E46704702
:102F6000F8B500BFF8BC08BC9E46704700000020C2
:102F70002D000000546172676574204469737461A8
:102F80006E63652066726F6D20736C6176652025B7
:102F9000643A257325642E253032646D0D0A0000D5
:102FA00050726F6772616D6D6520537461727465E4
:102FB000640000005374617274696E672054696D17
:102FC000653A202564000000526563656976696E84
:102FD000672054696D653A2025640000FFFFFFFFFC
:102FE000FFFFFFFFFFFFFFFFFFFFFFFF00000000ED
:102FF000000000000000D60106010000590A000090
:10300000C50A0000550A0000756172745F6C6F6735
:103010005F6261636B656E64000000004261636B18
:10302000656E647320666C757368656400000000EB
:10303000617070000C1800207F0000008C180020C8
:103040001B5B313B33316D0025734C6F677320641C
:10305000726F70706564202825642925730D0A003D
:103060001B5B306D00000000257300003C25733EA3
:103070002025733A2000000020253032780000001F
:10308000202020007C000000256300001B5B313BFA
:1030900033306D001B5B313B33326D001B5B313BCA
:1030A00033336D001B5B313B33346D001B5B313BB5
:1030B00033356D001B5B313B33366D001B5B313BA1
:1030C00033376D006572726F720000007761726E47
:1030D000696E6700696E666F000000006465627566
:1030E00067000000603000008C30000040300000BD
:1030F000943000009C300000A4300000AC30000090
:10310000B4300000BC30000000000000C4300000FB
:10311000CC300000D4300000DC3000004661746127
:103120006C206572726F720053797374656D2072D2
:103130006573657400000000303132333435363742
:10314000383941424344454667667800636C6F6393
:103150006B000000434C4F434B00000050525300A3
:103160005350494D000000005541525400000000EA
:1031700055415254450000202020202020202020AE
:103180002828282828202020202020202020202017
:103190002020202020202088101010101010101047
:1031A000101010101010100404040404040404048B
:1031B0000410101010101010414141414141010113
:1031C00001010101010101010101010101010101EF
:1031D00001011010101010104242424242420202FD
:1031E00002020202020202020202020202020202BF
:1031F000020210101010200000000000000000006B
:1032000000000000000000000000000000000000BE
:1032100000000000000000000000000000000000AE
:10322000000000000000000000000000000000009E
:10323000000000000000000000000000000000008E
:10324000000000000000000000000000000000007E
:10325000000000000000000000000000000000006E
:10326000000000000000000000000000000000005E
:0C32700000000000000000000000000052
:10327C0054310000000000005C3100000000000030
:10328C006031000000000000683100000000000008
:10329C00703100000000000030300000000003031B
:1032AC004C31000000000000483100000000030316
:1032BC00FC2F000000000000083000007801002006
:1032CC0014130020DC130020E41300201C13002036
:0432DC0018000000D6
:0832E00060CFFF7F0100000038
:1032E80000000000000000000000000000000000D6
:1032F80000000000000000000000000000000000C6
:1033080000000000000000000000000000000000B5
:1033180000000000000000000000000000000000A5
:103328000000000000000000000000000000000095
:103338000000000000000000000000000000000085
:103348000004FFC1FBE700000000000000000000CF
:103358000000000000000000000000000000000065
:103368000000000000000000000000000000000055
:103378000000000000000000000000000000000045
:103388000000000000000000000000000000000035
:103398000000000000000000000000000000000025
:1033A8000000000000000000000000000000000015
:1033B8000000000000000000000000000000000005
:1033C80000000000000000000000000000000000F5
:1033D80000000000000000000000000000000000E5
:1033E80000000000000000000000000000000000D5
:1033F80000000000000000000000000000000000C5
:1034080000000000000000000000000000000000B4
:1034180000000000000000000000000000000000A4
:103428000000000000000000000000000000000094
:103438000000000000000000000000000000000084
:103448000090D003000000000020004000000000B1
:10345800002000400000000000000000FF00000005
:08346800250200000102000032
:10347000000000000000000000000000000000004C
:10348000000000000000000000000000000000003C
:10349000000000000000000000000000000000002C
:1034A000000000000000000000000000000000001C
:0400000300002EEDDE
:00000001FF
